:020000000000fe
:020001000003fa
:020002000006f6
:020003000009f2
:02000400000ded
:020005000010e9
:020006000013e5
:020007000016e1
:020008000019dd
:02000900001cd9
:02000a00001fd5
:02000b000023d0
:02000c000026cc
:02000d000029c8
:02000e00002cc4
:02000f00002fc0
:020010000032bc
:020011000035b8
:020012000039b3
:02001300003caf
:02001400003fab
:020015000042a7
:020016000045a3
:0200170000489f
:02001800004b9b
:02001900004f96
:02001a00005292
:02001b0000558e
:02001c0000588a
:02001d00005b86
:02001e00005e82
:02001f0000617e
:02002000006579
:02002100006875
:02002200006b71
:02002300006e6d
:02002400007169
:02002500007465
:02002600007761
:02002700007b5c
:02002800007e58
:02002900008154
:02002a00008450
:02002b0000874c
:02002c00008a48
:02002d00008d44
:02002e0000913f
:02002f0000943b
:02003000009737
:02003100009a33
:02003200009d2f
:0200330000a02b
:0200340000a327
:0200350000a623
:0200360000aa1e
:0200370000ad1a
:0200380000b016
:0200390000b312
:02003a0000b60e
:02003b0000b90a
:02003c0000bc06
:02003d0000c001
:02003e0000c3fd
:02003f0000c6f9
:0200400000c9f5
:0200410000ccf1
:0200420000cfed
:0200430000d2e9
:0200440000d6e4
:0200450000d9e0
:0200460000dcdc
:0200470000dfd8
:0200480000e2d4
:0200490000e5d0
:02004a0000e8cc
:02004b0000ecc7
:02004c0000efc3
:02004d0000f2bf
:02004e0000f5bb
:02004f0000f8b7
:0200500000fbb3
:0200510000feaf
:020052000102a9
:020053000105a5
:020054000108a1
:02005500010b9d
:02005600010e99
:02005700011195
:02005800011491
:0200590001188c
:02005a00011b88
:02005b00011e84
:02005c00012180
:02005d0001247c
:02005e00012778
:02005f00012a74
:02006000012e6f
:0200610001316b
:02006200013467
:02006300013763
:02006400013a5f
:02006500013d5b
:02006600014057
:02006700014452
:0200680001474e
:02006900014a4a
:02006a00014d46
:02006b00015042
:02006c0001533e
:02006d0001563a
:02006e00015a35
:02006f00015d31
:0200700001602d
:02007100016329
:02007200016625
:02007300016921
:02007400016c1d
:02007500017018
:02007600017314
:02007700017610
:0200780001790c
:02007900017c08
:02007a00017f04
:02007b00018200
:02007c000186fb
:02007d000189f7
:02007e00018cf3
:02007f00018fef
:020080000192eb
:020081000195e7
:020082000198e3
:02008300019cde
:02008400019fda
:0200850001a2d6
:0200860001a5d2
:0200870001a8ce
:0200880001abca
:0200890001aec6
:02008a0001b2c1
:02008b0001b5bd
:02008c0001b8b9
:02008d0001bbb5
:02008e0001beb1
:02008f0001c1ad
:0200900001c4a9
:0200910001c8a4
:0200920001cba0
:0200930001ce9c
:0200940001d198
:0200950001d494
:0200960001d790
:0200970001da8c
:0200980001dd88
:0200990001e183
:02009a0001e47f
:02009b0001e77b
:02009c0001ea77
:02009d0001ed73
:02009e0001f06f
:02009f0001f36b
:0200a00001f766
:0200a10001fa62
:0200a20001fd5e
:0200a300020059
:0200a400020355
:0200a500020651
:0200a60002094d
:0200a700020d48
:0200a800021044
:0200a900021340
:0200aa0002163c
:0200ab00021938
:0200ac00021c34
:0200ad00021f30
:0200ae0002232b
:0200af00022627
:0200b000022923
:0200b100022c1f
:0200b200022f1b
:0200b300023217
:0200b400023513
:0200b50002390e
:0200b600023c0a
:0200b700023f06
:0200b800024202
:0200b9000245fe
:0200ba000248fa
:0200bb00024bf6
:0200bc00024ff1
:0200bd000252ed
:0200be000255e9
:0200bf000258e5
:0200c000025be1
:0200c100025edd
:0200c2000261d9
:0200c3000265d4
:0200c4000268d0
:0200c500026bcc
:0200c600026ec8
:0200c7000271c4
:0200c8000274c0
:0200c9000277bc
:0200ca00027bb7
:0200cb00027eb3
:0200cc000281af
:0200cd000284ab
:0200ce000287a7
:0200cf00028aa3
:0200d000028d9f
:0200d10002919a
:0200d200029496
:0200d300029792
:0200d400029a8e
:0200d500029d8a
:0200d60002a086
:0200d70002a382
:0200d80002a77d
:0200d90002aa79
:0200da0002ad75
:0200db0002b071
:0200dc0002b36d
:0200dd0002b669
:0200de0002b965
:0200df0002bd60
:0200e00002c05c
:0200e10002c358
:0200e20002c654
:0200e30002c950
:0200e40002cc4c
:0200e50002cf48
:0200e60002d244
:0200e70002d63f
:0200e80002d93b
:0200e90002dc37
:0200ea0002df33
:0200eb0002e22f
:0200ec0002e52b
:0200ed0002e827
:0200ee0002ec22
:0200ef0002ef1e
:0200f00002f21a
:0200f10002f516
:0200f20002f812
:0200f30002fb0e
:0200f40002fe0a
:0200f500030204
:0200f600030500
:0200f7000308fc
:0200f800030bf8
:0200f900030ef4
:0200fa000311f0
:0200fb000314ec
:0200fc000318e7
:0200fd00031be3
:0200fe00031edf
:0200ff000321db
:00000001FF
