:020000007fff80
:020001007fa6d8
:020002007e9ce2
:020003007ce39c
:020004007a7c04
:02000500776b17
:0200060073b5d0
:020007006f5e2a
:020008006a6d1f
:0200090064e8a9
:02000a005ed7bf
:02000b00584259
:02000c0051336e
:02000d0049b4f4
:02000e0041cee1
:02000f00398c2a
:0200100030fbc3
:0200110028269f
:020012001f1ab3
:0200130015e2f4
:020014000c8c52
:020015000324c2
:02001600f9b837
:02001700f055a2
:02001800e707f8
:02001900dddd2b
:02001a00d4e12f
:02001b00cc21f6
:02001c00c3aa75
:02001d00bb86a0
:02001e00b3c16c
:02001f00ac65ce
:02002000a57ebb
:020021009f1529
:02002200993112
:0200230093dd6b
:020024008f1e2d
:020025008afc53
:02002600877cd5
:0200270084a4af
:020028008277dd
:0200290080f75e
:02002a0080282c
:02002b00800b48
:02002c00809fb3
:02002d0081e36d
:02002e0083d776
:02002f008677d2
:0200300089bf86
:020031008dac94
:02003200923703
:02003300975ada
:020034009d0f1e
:02003500a34dd9
:02003600aa0b13
:02003700b141d5
:02003800b8e42a
:02003900c0e91c
:02003a00c946b5
:02003b00d1ef03
:02003c00dad810
:02003d00e3f5e9
:02003e00ed389b
:02003f00f69633
:00000001FF
