:020000000001FD
:020001000003FA
:020002000005F7
:020003000007F4
:020004000009F1
:02000500000BEE
:02000600000DEB
:02000700000FE8
:020008000011E5
:020009000013E2
:02000A000015DF
:02000B000017DC
:02000C000019D9
:02000D00001BD6
:02000E00001DD3
:02000F00001FD0
:020010000021CD
:020011000023CA
:020012000025C7
:020013000027C4
:020014000029C1
:02001500002BBE
:02001600002DBB
:02001700002FB8
:020018000031B5
:020019000033B2
:02001A000035AF
:02001B000037AC
:02001C000039A9
:02001D00003BA6
:02001E00003DA3
:02001F00003FA0
:0200200000419D
:0200210000439A
:02002200004597
:02002300004794
:02002400004991
:02002500004B8E
:02002600004D8B
:02002700004F88
:02002800005185
:02002900005382
:02002A0000557F
:02002B0000577C
:02002C00005979
:02002D00005B76
:02002E00005D73
:02002F00005F70
:0200300000616D
:0200310000636A
:02003200006567
:02003300006764
:02003400006961
:02003500006B5E
:02003600006D5B
:02003700006F58
:02003800007155
:02003900007352
:02003A0000754F
:02003B0000774C
:02003C00007949
:02003D00007B46
:02003E00007D43
:02003F00007F40
:0200400000813D
:0200410000833A
:02004200008537
:02004300008734
:02004400008931
:02004500008B2E
:02004600008D2B
:02004700008F28
:02004800009125
:02004900009322
:02004A0000951F
:02004B0000971C
:02004C00009919
:02004D00009B16
:02004E00009D13
:02004F00009F10
:0200500000A10D
:0200510000A30A
:0200520000A507
:0200530000A704
:0200540000A901
:0200550000ABFE
:0200560000ADFB
:0200570000AFF8
:0200580000B1F5
:0200590000B3F2
:02005A0000B5EF
:02005B0000B7EC
:02005C0000B9E9
:02005D0000BBE6
:02005E0000BDE3
:02005F0000BFE0
:0200600000C1DD
:0200610000C3DA
:0200620000C5D7
:0200630000C7D4
:0200640000C9D1
:0200650000CBCE
:0200660000CDCB
:0200670000CFC8
:0200680000D1C5
:0200690000D3C2
:02006A0000D5BF
:02006B0000D7BC
:02006C0000D9B9
:02006D0000DBB6
:02006E0000DDB3
:02006F0000DFB0
:0200700000E1AD
:0200710000E3AA
:0200720000E5A7
:0200730000E7A4
:0200740000E9A1
:0200750000EB9E
:0200760000ED9B
:0200770000EF98
:0200780000F195
:0200790000F392
:02007A0000F58F
:02007B0000F78C
:02007C0000F989
:02007D0000FB86
:02007E0000FD83
:02007F0000FF80
:0200800001017C
:02008100010379
:02008200010576
:02008300010773
:02008400010970
:02008500010B6D
:02008600010D6A
:02008700010F67
:02008800011164
:02008900011361
:02008A0001155E
:02008B0001175B
:02008C00011958
:02008D00011B55
:02008E00011D52
:02008F00011F4F
:0200900001214C
:02009100012349
:02009200012546
:02009300012743
:02009400012940
:02009500012B3D
:02009600012D3A
:02009700012F37
:02009800013134
:02009900013331
:02009A0001352E
:02009B0001372B
:02009C00013928
:02009D00013B25
:02009E00013D22
:02009F00013F1F
:0200A00001411C
:0200A100014319
:0200A200014516
:0200A300014713
:0200A400014910
:0200A500014B0D
:0200A600014D0A
:0200A700014F07
:0200A800015104
:0200A900015301
:0200AA000155FE
:0200AB000157FB
:0200AC000159F8
:0200AD00015BF5
:0200AE00015DF2
:0200AF00015FEF
:0200B0000161EC
:0200B1000163E9
:0200B2000165E6
:0200B3000167E3
:0200B4000169E0
:0200B500016BDD
:0200B600016DDA
:0200B700016FD7
:0200B8000171D4
:0200B9000173D1
:0200BA000175CE
:0200BB000177CB
:0200BC000179C8
:0200BD00017BC5
:0200BE00017DC2
:0200BF00017FBF
:0200C0000181BC
:0200C1000183B9
:0200C2000185B6
:0200C3000187B3
:0200C4000189B0
:0200C500018BAD
:0200C600018DAA
:0200C700018FA7
:0200C8000191A4
:0200C9000193A1
:0200CA0001959E
:0200CB0001979B
:0200CC00019998
:0200CD00019B95
:0200CE00019D92
:0200CF00019F8F
:0200D00001A18C
:0200D10001A389
:0200D20001A586
:0200D30001A783
:0200D40001A980
:0200D50001AB7D
:0200D60001AD7A
:0200D70001AF77
:0200D80001B174
:0200D90001B371
:0200DA0001B56E
:0200DB0001B76B
:0200DC0001B968
:0200DD0001BB65
:0200DE0001BD62
:0200DF0001BF5F
:0200E00001C15C
:0200E10001C359
:0200E20001C556
:0200E30001C753
:0200E40001C950
:0200E50001CB4D
:0200E60001CD4A
:0200E70001CF47
:0200E80001D144
:0200E90001D341
:0200EA0001D53E
:0200EB0001D73B
:0200EC0001D938
:0200ED0001DB35
:0200EE0001DD32
:0200EF0001DF2F
:0200F00001E12C
:0200F10001E329
:0200F20001E526
:0200F30001E723
:0200F40001E920
:0200F50001EB1D
:0200F60001ED1A
:0200F70001EF17
:0200F80001F114
:0200F90001F311
:0200FA0001F50E
:0200FB0001F70B
:0200FC0001F908
:0200FD0001FB05
:0200FE0001FD02
:0200FF0001FFFF
:00000001FF
