:0200000001fffe
:0200010001fffd
:0200020001fffc
:0200030001fffb
:0200040001fffa
:0200050001fff9
:0200060001fff8
:0200070001fff7
:0200080001fff6
:0200090001fff5
:02000a0001fff4
:02000b0001fff3
:02000c0001fff2
:02000d0001fff1
:02000e0001fff0
:02000f0001ffef
:0200100001ffee
:0200110001ffed
:0200120001ffec
:0200130001ffeb
:0200140001ffea
:0200150001ffe9
:0200160001ffe8
:0200170001ffe7
:0200180001ffe6
:0200190001ffe5
:02001a0001ffe4
:02001b0001ffe3
:02001c0001ffe2
:02001d0001ffe1
:02001e0001ffe0
:02001f0001ffdf
:0200200001ffde
:0200210001ffdd
:0200220001ffdc
:0200230001ffdb
:0200240001ffda
:0200250001ffd9
:0200260001ffd8
:0200270001ffd7
:0200280001ffd6
:0200290001ffd5
:02002a0001ffd4
:02002b0001ffd3
:02002c0001ffd2
:02002d0001ffd1
:02002e0001ffd0
:02002f0001ffcf
:0200300001ffce
:0200310001ffcd
:0200320001ffcc
:0200330001ffcb
:0200340001ffca
:0200350001ffc9
:0200360001ffc8
:0200370001ffc7
:0200380001ffc6
:0200390001ffc5
:02003a0001ffc4
:02003b0001ffc3
:02003c0001ffc2
:02003d0001ffc1
:02003e0001ffc0
:02003f0001ffbf
:0200400001ffbe
:0200410001ffbd
:0200420001ffbc
:0200430001ffbb
:0200440001ffba
:0200450001ffb9
:0200460001ffb8
:0200470001ffb7
:0200480001ffb6
:0200490001ffb5
:02004a0001ffb4
:02004b0001ffb3
:02004c0001ffb2
:02004d0001ffb1
:02004e0001ffb0
:02004f0001ffaf
:0200500001ffae
:0200510001ffad
:0200520001ffac
:0200530001ffab
:0200540001ffaa
:0200550001ffa9
:0200560001ffa8
:0200570001ffa7
:0200580001ffa6
:0200590001ffa5
:02005a0001ffa4
:02005b0001ffa3
:02005c0001ffa2
:02005d0001ffa1
:02005e0001ffa0
:02005f0001ff9f
:0200600001ff9e
:0200610001ff9d
:0200620001ff9c
:0200630001ff9b
:0200640001ff9a
:0200650001ff99
:0200660001ff98
:0200670001ff97
:0200680001ff96
:0200690001ff95
:02006a0001ff94
:02006b0001ff93
:02006c0001ff92
:02006d0001ff91
:02006e0001ff90
:02006f0001ff8f
:0200700001ff8e
:0200710001ff8d
:0200720001ff8c
:0200730001ff8b
:0200740001ff8a
:0200750001ff89
:0200760001ff88
:0200770001ff87
:0200780001ff86
:0200790001ff85
:02007a0001ff84
:02007b0001ff83
:02007c0001ff82
:02007d0001ff81
:02007e0001ff80
:02007f0001ff7f
:0200800001ff7e
:0200810001ff7d
:0200820001ff7c
:0200830001ff7b
:0200840001ff7a
:0200850001ff79
:0200860001ff78
:0200870001ff77
:0200880001ff76
:0200890001ff75
:02008a0001ff74
:02008b0001ff73
:02008c0001ff72
:02008d0001ff71
:02008e0001ff70
:02008f0001ff6f
:0200900001ff6e
:0200910001ff6d
:0200920001ff6c
:0200930001ff6b
:0200940001ff6a
:0200950001ff69
:0200960001ff68
:0200970001ff67
:0200980001ff66
:0200990001ff65
:02009a0001ff64
:02009b0001ff63
:02009c0001ff62
:02009d0001ff61
:02009e0001ff60
:02009f0001ff5f
:0200a00001ff5e
:0200a10001ff5d
:0200a20001ff5c
:0200a30001ff5b
:0200a40001ff5a
:0200a50001ff59
:0200a60001ff58
:0200a70001ff57
:0200a80001ff56
:0200a90001ff55
:0200aa0001ff54
:0200ab0001ff53
:0200ac0001ff52
:0200ad0001ff51
:0200ae0001ff50
:0200af0001ff4f
:0200b00001ff4e
:0200b10001ff4d
:0200b20001ff4c
:0200b30001ff4b
:0200b40001ff4a
:0200b50001ff49
:0200b60001ff48
:0200b70001ff47
:0200b80001ff46
:0200b90001ff45
:0200ba0001ff44
:0200bb0001ff43
:0200bc0001ff42
:0200bd0001ff41
:0200be0001ff40
:0200bf0001ff3f
:0200c00001ff3e
:0200c10001ff3d
:0200c20001ff3c
:0200c30001ff3b
:0200c40001ff3a
:0200c50001ff39
:0200c60001ff38
:0200c70001ff37
:0200c80001ff36
:0200c90001ff35
:0200ca0001ff34
:0200cb0001ff33
:0200cc0001ff32
:0200cd0001ff31
:0200ce0001ff30
:0200cf0001ff2f
:0200d00001ff2e
:0200d10001ff2d
:0200d20001ff2c
:0200d30001ff2b
:0200d40001ff2a
:0200d50001ff29
:0200d60001ff28
:0200d70001ff27
:0200d80001ff26
:0200d90001ff25
:0200da0001ff24
:0200db0001ff23
:0200dc0001ff22
:0200dd0001ff21
:0200de0001ff20
:0200df0001ff1f
:0200e00001ff1e
:0200e10001ff1d
:0200e20001ff1c
:0200e30001ff1b
:0200e40001ff1a
:0200e50001ff19
:0200e60001ff18
:0200e70001ff17
:0200e80001ff16
:0200e90001ff15
:0200ea0001ff14
:0200eb0001ff13
:0200ec0001ff12
:0200ed0001ff11
:0200ee0001ff10
:0200ef0001ff0f
:0200f00001ff0e
:0200f10001ff0d
:0200f20001ff0c
:0200f30001ff0b
:0200f40001ff0a
:0200f50001ff09
:0200f60001ff08
:0200f70001ff07
:0200f80001ff06
:0200f90001ff05
:0200fa0001ff04
:0200fb0001ff03
:0200fc0001ff02
:0200fd0001ff01
:0200fe0001ff00
:0200ff0001ffff
:0201000001fffd
:0201010001fffc
:0201020001fffb
:0201030001fffa
:0201040001fff9
:0201050001fff8
:0201060001fff7
:0201070001fff6
:0201080001fff5
:0201090001fff4
:02010a0001fff3
:02010b0001fff2
:02010c0001fff1
:02010d0001fff0
:02010e0001ffef
:02010f0001ffee
:0201100001ffed
:0201110001ffec
:0201120001ffeb
:0201130001ffea
:0201140001ffe9
:0201150001ffe8
:0201160001ffe7
:0201170001ffe6
:0201180001ffe5
:0201190001ffe4
:02011a0001ffe3
:02011b0001ffe2
:02011c0001ffe1
:02011d0001ffe0
:02011e0001ffdf
:02011f0001ffde
:0201200001ffdd
:0201210001ffdc
:0201220001ffdb
:0201230001ffda
:0201240001ffd9
:0201250001ffd8
:0201260001ffd7
:0201270001ffd6
:0201280001ffd5
:0201290001ffd4
:02012a0001ffd3
:02012b0001ffd2
:02012c0001ffd1
:02012d0001ffd0
:02012e0001ffcf
:02012f0001ffce
:0201300001ffcd
:0201310001ffcc
:0201320001ffcb
:0201330001ffca
:0201340001ffc9
:0201350001ffc8
:0201360001ffc7
:0201370001ffc6
:0201380001ffc5
:0201390001ffc4
:02013a0001ffc3
:02013b0001ffc2
:02013c0001ffc1
:02013d0001ffc0
:02013e0001ffbf
:02013f0001ffbe
:0201400001ffbd
:0201410001ffbc
:0201420001ffbb
:0201430001ffba
:0201440001ffb9
:0201450001ffb8
:0201460001ffb7
:0201470001ffb6
:0201480001ffb5
:0201490001ffb4
:02014a0001ffb3
:02014b0001ffb2
:02014c0001ffb1
:02014d0001ffb0
:02014e0001ffaf
:02014f0001ffae
:0201500001ffad
:0201510001ffac
:0201520001ffab
:0201530001ffaa
:0201540001ffa9
:0201550001ffa8
:0201560001ffa7
:0201570001ffa6
:0201580001ffa5
:0201590001ffa4
:02015a0001ffa3
:02015b0001ffa2
:02015c0001ffa1
:02015d0001ffa0
:02015e0001ff9f
:02015f0001ff9e
:0201600001ff9d
:0201610001ff9c
:0201620001ff9b
:0201630001ff9a
:0201640001ff99
:0201650001ff98
:0201660001ff97
:0201670001ff96
:0201680001ff95
:0201690001ff94
:02016a0001ff93
:02016b0001ff92
:02016c0001ff91
:02016d0001ff90
:02016e0001ff8f
:02016f0001ff8e
:0201700001ff8d
:0201710001ff8c
:0201720001ff8b
:0201730001ff8a
:0201740001ff89
:0201750001ff88
:0201760001ff87
:0201770001ff86
:0201780001ff85
:0201790001ff84
:02017a0001ff83
:02017b0001ff82
:02017c0001ff81
:02017d0001ff80
:02017e0001ff7f
:02017f0001ff7e
:0201800001ff7d
:0201810001ff7c
:0201820001ff7b
:0201830001ff7a
:0201840001ff79
:0201850001ff78
:0201860001ff77
:0201870001ff76
:0201880001ff75
:0201890001ff74
:02018a0001ff73
:02018b0001ff72
:02018c0001ff71
:02018d0001ff70
:02018e0001ff6f
:02018f0001ff6e
:0201900001ff6d
:0201910001ff6c
:0201920001ff6b
:0201930001ff6a
:0201940001ff69
:0201950001ff68
:0201960001ff67
:0201970001ff66
:0201980001ff65
:0201990001ff64
:02019a0001ff63
:02019b0001ff62
:02019c0001ff61
:02019d0001ff60
:02019e0001ff5f
:02019f0001ff5e
:0201a00001ff5d
:0201a10001ff5c
:0201a20001ff5b
:0201a30001ff5a
:0201a40001ff59
:0201a50001ff58
:0201a60001ff57
:0201a70001ff56
:0201a80001ff55
:0201a90001ff54
:0201aa0001ff53
:0201ab0001ff52
:0201ac0001ff51
:0201ad0001ff50
:0201ae0001ff4f
:0201af0001ff4e
:0201b00001ff4d
:0201b10001ff4c
:0201b20001ff4b
:0201b30001ff4a
:0201b40001ff49
:0201b50001ff48
:0201b60001ff47
:0201b70001ff46
:0201b80001ff45
:0201b90001ff44
:0201ba0001ff43
:0201bb0001ff42
:0201bc0001ff41
:0201bd0001ff40
:0201be0001ff3f
:0201bf0001ff3e
:0201c00001ff3d
:0201c10001ff3c
:0201c20001ff3b
:0201c30001ff3a
:0201c40001ff39
:0201c50001ff38
:0201c60001ff37
:0201c70001ff36
:0201c80001ff35
:0201c90001ff34
:0201ca0001ff33
:0201cb0001ff32
:0201cc0001ff31
:0201cd0001ff30
:0201ce0001fe30
:0201cf0001fe2f
:0201d00001fe2e
:0201d10001fe2d
:0201d20001fe2c
:0201d30001fe2b
:0201d40001fe2a
:0201d50001fe29
:0201d60001fe28
:0201d70001fe27
:0201d80001fe26
:0201d90001fe25
:0201da0001fe24
:0201db0001fe23
:0201dc0001fe22
:0201dd0001fe21
:0201de0001fe20
:0201df0001fe1f
:0201e00001fe1e
:0201e10001fe1d
:0201e20001fe1c
:0201e30001fe1b
:0201e40001fe1a
:0201e50001fe19
:0201e60001fe18
:0201e70001fe17
:0201e80001fe16
:0201e90001fe15
:0201ea0001fe14
:0201eb0001fe13
:0201ec0001fe12
:0201ed0001fe11
:0201ee0001fe10
:0201ef0001fe0f
:0201f00001fe0e
:0201f10001fe0d
:0201f20001fe0c
:0201f30001fe0b
:0201f40001fe0a
:0201f50001fe09
:0201f60001fe08
:0201f70001fe07
:0201f80001fe06
:0201f90001fe05
:0201fa0001fe04
:0201fb0001fe03
:0201fc0001fe02
:0201fd0001fe01
:0201fe0001fe00
:0201ff0001feff
:0202000001fefd
:0202010001fefc
:0202020001fefb
:0202030001fefa
:0202040001fef9
:0202050001fef8
:0202060001fef7
:0202070001fef6
:0202080001fef5
:0202090001fef4
:02020a0001fef3
:02020b0001fef2
:02020c0001fef1
:02020d0001fef0
:02020e0001feef
:02020f0001feee
:0202100001feed
:0202110001feec
:0202120001feeb
:0202130001feea
:0202140001fee9
:0202150001fee8
:0202160001fee7
:0202170001fee6
:0202180001fee5
:0202190001fee4
:02021a0001fee3
:02021b0001fee2
:02021c0001fee1
:02021d0001fee0
:02021e0001fedf
:02021f0001fede
:0202200001fedd
:0202210001fedc
:0202220001fedb
:0202230001feda
:0202240001fed9
:0202250001fed8
:0202260001fed7
:0202270001fed6
:0202280001fed5
:0202290001fed4
:02022a0001fed3
:02022b0001fed2
:02022c0001fed1
:02022d0001fed0
:02022e0001fecf
:02022f0001fece
:0202300001fecd
:0202310001fecc
:0202320001fecb
:0202330001feca
:0202340001fec9
:0202350001fec8
:0202360001fec7
:0202370001fec6
:0202380001fec5
:0202390001fec4
:02023a0001fec3
:02023b0001fec2
:02023c0001fec1
:02023d0001fec0
:02023e0001febf
:02023f0001febe
:0202400001febd
:0202410001febc
:0202420001febb
:0202430001feba
:0202440001feb9
:0202450001feb8
:0202460001feb7
:0202470001feb6
:0202480001feb5
:0202490001feb4
:02024a0001feb3
:02024b0001feb2
:02024c0001feb1
:02024d0001feb0
:02024e0001feaf
:02024f0001feae
:0202500001fead
:0202510001feac
:0202520001feab
:0202530001feaa
:0202540001fea9
:0202550001fea8
:0202560001fea7
:0202570001fea6
:0202580001fea5
:0202590001fea4
:02025a0001fea3
:02025b0001fea2
:02025c0001fea1
:02025d0001fea0
:02025e0001fe9f
:02025f0001fe9e
:0202600001fe9d
:0202610001fe9c
:0202620001fe9b
:0202630001fe9a
:0202640001fe99
:0202650001fe98
:0202660001fe97
:0202670001fe96
:0202680001fe95
:0202690001fe94
:02026a0001fe93
:02026b0001fe92
:02026c0001fe91
:02026d0001fe90
:02026e0001fe8f
:02026f0001fe8e
:0202700001fe8d
:0202710001fe8c
:0202720001fe8b
:0202730001fe8a
:0202740001fe89
:0202750001fe88
:0202760001fe87
:0202770001fe86
:0202780001fe85
:0202790001fe84
:02027a0001fe83
:02027b0001fe82
:02027c0001fe81
:02027d0001fe80
:02027e0001fe7f
:02027f0001fe7e
:0202800001fe7d
:0202810001fe7c
:0202820001fe7b
:0202830001fe7a
:0202840001fe79
:0202850001fe78
:0202860001fe77
:0202870001fe76
:0202880001fe75
:0202890001fe74
:02028a0001fe73
:02028b0001fe72
:02028c0001fe71
:02028d0001fe70
:02028e0001fe6f
:02028f0001fe6e
:0202900001fe6d
:0202910001fe6c
:0202920001fe6b
:0202930001fe6a
:0202940001fe69
:0202950001fe68
:0202960001fe67
:0202970001fe66
:0202980001fe65
:0202990001fe64
:02029a0001fe63
:02029b0001fe62
:02029c0001fe61
:02029d0001fe60
:02029e0001fe5f
:02029f0001fe5e
:0202a00001fe5d
:0202a10001fe5c
:0202a20001fe5b
:0202a30001fe5a
:0202a40001fe59
:0202a50001fe58
:0202a60001fe57
:0202a70001fe56
:0202a80001fe55
:0202a90001fe54
:0202aa0001fe53
:0202ab0001fe52
:0202ac0001fe51
:0202ad0001fe50
:0202ae0001fe4f
:0202af0001fe4e
:0202b00001fe4d
:0202b10001fe4c
:0202b20001fe4b
:0202b30001fe4a
:0202b40001fe49
:0202b50001fe48
:0202b60001fe47
:0202b70001fe46
:0202b80001fe45
:0202b90001fe44
:0202ba0001fe43
:0202bb0001fe42
:0202bc0001fe41
:0202bd0001fe40
:0202be0001fe3f
:0202bf0001fe3e
:0202c00001fe3d
:0202c10001fe3c
:0202c20001fe3b
:0202c30001fe3a
:0202c40001fe39
:0202c50001fe38
:0202c60001fe37
:0202c70001fe36
:0202c80001fe35
:0202c90001fe34
:0202ca0001fe33
:0202cb0001fe32
:0202cc0001fe31
:0202cd0001fe30
:0202ce0001fe2f
:0202cf0001fe2e
:0202d00001fe2d
:0202d10001fe2c
:0202d20001fe2b
:0202d30001fe2a
:0202d40001fe29
:0202d50001fe28
:0202d60001fe27
:0202d70001fe26
:0202d80001fe25
:0202d90001fe24
:0202da0001fe23
:0202db0001fe22
:0202dc0001fe21
:0202dd0001fe20
:0202de0001fe1f
:0202df0001fe1e
:0202e00001fe1d
:0202e10001fe1c
:0202e20001fe1b
:0202e30001fe1a
:0202e40001fe19
:0202e50001fe18
:0202e60001fe17
:0202e70001fe16
:0202e80001fe15
:0202e90001fe14
:0202ea0001fe13
:0202eb0001fe12
:0202ec0001fe11
:0202ed0001fe10
:0202ee0001fe0f
:0202ef0001fe0e
:0202f00001fe0d
:0202f10001fe0c
:0202f20001fe0b
:0202f30001fe0a
:0202f40001fe09
:0202f50001fe08
:0202f60001fe07
:0202f70001fe06
:0202f80001fe05
:0202f90001fe04
:0202fa0001fe03
:0202fb0001fe02
:0202fc0001fe01
:0202fd0001fe00
:0202fe0001feff
:0202ff0001fefe
:0203000001fefc
:0203010001fefb
:0203020001fefa
:0203030001fef9
:0203040001fef8
:0203050001fef7
:0203060001fef6
:0203070001fef5
:0203080001fef4
:0203090001fef3
:02030a0001fef2
:02030b0001fef1
:02030c0001fef0
:02030d0001feef
:02030e0001feee
:02030f0001feed
:0203100001feec
:0203110001feeb
:0203120001feea
:0203130001fee9
:0203140001fee8
:0203150001fee7
:0203160001fee6
:0203170001fee5
:0203180001fee4
:0203190001fee3
:02031a0001fee2
:02031b0001fee1
:02031c0001fee0
:02031d0001fedf
:02031e0001fede
:02031f0001fedd
:0203200001fddd
:0203210001fddc
:0203220001fddb
:0203230001fdda
:0203240001fdd9
:0203250001fdd8
:0203260001fdd7
:0203270001fdd6
:0203280001fdd5
:0203290001fdd4
:02032a0001fdd3
:02032b0001fdd2
:02032c0001fdd1
:02032d0001fdd0
:02032e0001fdcf
:02032f0001fdce
:0203300001fdcd
:0203310001fdcc
:0203320001fdcb
:0203330001fdca
:0203340001fdc9
:0203350001fdc8
:0203360001fdc7
:0203370001fdc6
:0203380001fdc5
:0203390001fdc4
:02033a0001fdc3
:02033b0001fdc2
:02033c0001fdc1
:02033d0001fdc0
:02033e0001fdbf
:02033f0001fdbe
:0203400001fdbd
:0203410001fdbc
:0203420001fdbb
:0203430001fdba
:0203440001fdb9
:0203450001fdb8
:0203460001fdb7
:0203470001fdb6
:0203480001fdb5
:0203490001fdb4
:02034a0001fdb3
:02034b0001fdb2
:02034c0001fdb1
:02034d0001fdb0
:02034e0001fdaf
:02034f0001fdae
:0203500001fdad
:0203510001fdac
:0203520001fdab
:0203530001fdaa
:0203540001fda9
:0203550001fda8
:0203560001fda7
:0203570001fda6
:0203580001fda5
:0203590001fda4
:02035a0001fda3
:02035b0001fda2
:02035c0001fda1
:02035d0001fda0
:02035e0001fd9f
:02035f0001fd9e
:0203600001fd9d
:0203610001fd9c
:0203620001fd9b
:0203630001fd9a
:0203640001fd99
:0203650001fd98
:0203660001fd97
:0203670001fd96
:0203680001fd95
:0203690001fd94
:02036a0001fd93
:02036b0001fd92
:02036c0001fd91
:02036d0001fd90
:02036e0001fd8f
:02036f0001fd8e
:0203700001fd8d
:0203710001fd8c
:0203720001fd8b
:0203730001fd8a
:0203740001fd89
:0203750001fd88
:0203760001fd87
:0203770001fd86
:0203780001fd85
:0203790001fd84
:02037a0001fd83
:02037b0001fd82
:02037c0001fd81
:02037d0001fd80
:02037e0001fd7f
:02037f0001fd7e
:0203800001fd7d
:0203810001fd7c
:0203820001fd7b
:0203830001fd7a
:0203840001fd79
:0203850001fd78
:0203860001fd77
:0203870001fd76
:0203880001fd75
:0203890001fd74
:02038a0001fd73
:02038b0001fd72
:02038c0001fd71
:02038d0001fd70
:02038e0001fd6f
:02038f0001fd6e
:0203900001fd6d
:0203910001fd6c
:0203920001fd6b
:0203930001fd6a
:0203940001fd69
:0203950001fd68
:0203960001fd67
:0203970001fd66
:0203980001fd65
:0203990001fd64
:02039a0001fd63
:02039b0001fd62
:02039c0001fd61
:02039d0001fd60
:02039e0001fd5f
:02039f0001fd5e
:0203a00001fd5d
:0203a10001fd5c
:0203a20001fd5b
:0203a30001fd5a
:0203a40001fd59
:0203a50001fd58
:0203a60001fd57
:0203a70001fd56
:0203a80001fd55
:0203a90001fd54
:0203aa0001fd53
:0203ab0001fd52
:0203ac0001fd51
:0203ad0001fd50
:0203ae0001fd4f
:0203af0001fd4e
:0203b00001fd4d
:0203b10001fd4c
:0203b20001fd4b
:0203b30001fd4a
:0203b40001fd49
:0203b50001fd48
:0203b60001fd47
:0203b70001fd46
:0203b80001fd45
:0203b90001fd44
:0203ba0001fd43
:0203bb0001fd42
:0203bc0001fd41
:0203bd0001fd40
:0203be0001fd3f
:0203bf0001fd3e
:0203c00001fd3d
:0203c10001fd3c
:0203c20001fd3b
:0203c30001fd3a
:0203c40001fd39
:0203c50001fd38
:0203c60001fd37
:0203c70001fd36
:0203c80001fd35
:0203c90001fd34
:0203ca0001fd33
:0203cb0001fd32
:0203cc0001fd31
:0203cd0001fd30
:0203ce0001fd2f
:0203cf0001fd2e
:0203d00001fd2d
:0203d10001fd2c
:0203d20001fd2b
:0203d30001fd2a
:0203d40001fd29
:0203d50001fd28
:0203d60001fd27
:0203d70001fd26
:0203d80001fd25
:0203d90001fd24
:0203da0001fd23
:0203db0001fd22
:0203dc0001fd21
:0203dd0001fd20
:0203de0001fd1f
:0203df0001fd1e
:0203e00001fd1d
:0203e10001fd1c
:0203e20001fd1b
:0203e30001fd1a
:0203e40001fd19
:0203e50001fd18
:0203e60001fd17
:0203e70001fd16
:0203e80001fd15
:0203e90001fd14
:0203ea0001fd13
:0203eb0001fd12
:0203ec0001fd11
:0203ed0001fd10
:0203ee0001fd0f
:0203ef0001fd0e
:0203f00001fd0d
:0203f10001fd0c
:0203f20001fd0b
:0203f30001fd0a
:0203f40001fd09
:0203f50001fd08
:0203f60001fd07
:0203f70001fd06
:0203f80001fd05
:0203f90001fd04
:0203fa0001fd03
:0203fb0001fd02
:0203fc0001fd01
:0203fd0001fd00
:0203fe0001fdff
:0203ff0001fdfe
:0204000001fdfc
:0204010001fdfb
:0204020001fdfa
:0204030001fdf9
:0204040001fdf8
:0204050001fdf7
:0204060001fdf6
:0204070001fdf5
:0204080001fdf4
:0204090001fcf4
:02040a0001fcf3
:02040b0001fcf2
:02040c0001fcf1
:02040d0001fcf0
:02040e0001fcef
:02040f0001fcee
:0204100001fced
:0204110001fcec
:0204120001fceb
:0204130001fcea
:0204140001fce9
:0204150001fce8
:0204160001fce7
:0204170001fce6
:0204180001fce5
:0204190001fce4
:02041a0001fce3
:02041b0001fce2
:02041c0001fce1
:02041d0001fce0
:02041e0001fcdf
:02041f0001fcde
:0204200001fcdd
:0204210001fcdc
:0204220001fcdb
:0204230001fcda
:0204240001fcd9
:0204250001fcd8
:0204260001fcd7
:0204270001fcd6
:0204280001fcd5
:0204290001fcd4
:02042a0001fcd3
:02042b0001fcd2
:02042c0001fcd1
:02042d0001fcd0
:02042e0001fccf
:02042f0001fcce
:0204300001fccd
:0204310001fccc
:0204320001fccb
:0204330001fcca
:0204340001fcc9
:0204350001fcc8
:0204360001fcc7
:0204370001fcc6
:0204380001fcc5
:0204390001fcc4
:02043a0001fcc3
:02043b0001fcc2
:02043c0001fcc1
:02043d0001fcc0
:02043e0001fcbf
:02043f0001fcbe
:0204400001fcbd
:0204410001fcbc
:0204420001fcbb
:0204430001fcba
:0204440001fcb9
:0204450001fcb8
:0204460001fcb7
:0204470001fcb6
:0204480001fcb5
:0204490001fcb4
:02044a0001fcb3
:02044b0001fcb2
:02044c0001fcb1
:02044d0001fcb0
:02044e0001fcaf
:02044f0001fcae
:0204500001fcad
:0204510001fcac
:0204520001fcab
:0204530001fcaa
:0204540001fca9
:0204550001fca8
:0204560001fca7
:0204570001fca6
:0204580001fca5
:0204590001fca4
:02045a0001fca3
:02045b0001fca2
:02045c0001fca1
:02045d0001fca0
:02045e0001fc9f
:02045f0001fc9e
:0204600001fc9d
:0204610001fc9c
:0204620001fc9b
:0204630001fc9a
:0204640001fc99
:0204650001fc98
:0204660001fc97
:0204670001fc96
:0204680001fc95
:0204690001fc94
:02046a0001fc93
:02046b0001fc92
:02046c0001fc91
:02046d0001fc90
:02046e0001fc8f
:02046f0001fc8e
:0204700001fc8d
:0204710001fc8c
:0204720001fc8b
:0204730001fc8a
:0204740001fc89
:0204750001fc88
:0204760001fc87
:0204770001fc86
:0204780001fc85
:0204790001fc84
:02047a0001fc83
:02047b0001fc82
:02047c0001fc81
:02047d0001fc80
:02047e0001fc7f
:02047f0001fc7e
:0204800001fc7d
:0204810001fc7c
:0204820001fc7b
:0204830001fc7a
:0204840001fc79
:0204850001fc78
:0204860001fc77
:0204870001fc76
:0204880001fc75
:0204890001fc74
:02048a0001fc73
:02048b0001fc72
:02048c0001fc71
:02048d0001fc70
:02048e0001fc6f
:02048f0001fc6e
:0204900001fc6d
:0204910001fc6c
:0204920001fc6b
:0204930001fc6a
:0204940001fc69
:0204950001fc68
:0204960001fc67
:0204970001fc66
:0204980001fc65
:0204990001fc64
:02049a0001fc63
:02049b0001fc62
:02049c0001fc61
:02049d0001fc60
:02049e0001fc5f
:02049f0001fc5e
:0204a00001fc5d
:0204a10001fc5c
:0204a20001fc5b
:0204a30001fc5a
:0204a40001fc59
:0204a50001fc58
:0204a60001fc57
:0204a70001fc56
:0204a80001fc55
:0204a90001fc54
:0204aa0001fc53
:0204ab0001fc52
:0204ac0001fc51
:0204ad0001fc50
:0204ae0001fc4f
:0204af0001fc4e
:0204b00001fc4d
:0204b10001fc4c
:0204b20001fc4b
:0204b30001fc4a
:0204b40001fc49
:0204b50001fc48
:0204b60001fc47
:0204b70001fc46
:0204b80001fc45
:0204b90001fc44
:0204ba0001fc43
:0204bb0001fc42
:0204bc0001fc41
:0204bd0001fc40
:0204be0001fc3f
:0204bf0001fc3e
:0204c00001fc3d
:0204c10001fc3c
:0204c20001fc3b
:0204c30001fc3a
:0204c40001fc39
:0204c50001fc38
:0204c60001fb38
:0204c70001fb37
:0204c80001fb36
:0204c90001fb35
:0204ca0001fb34
:0204cb0001fb33
:0204cc0001fb32
:0204cd0001fb31
:0204ce0001fb30
:0204cf0001fb2f
:0204d00001fb2e
:0204d10001fb2d
:0204d20001fb2c
:0204d30001fb2b
:0204d40001fb2a
:0204d50001fb29
:0204d60001fb28
:0204d70001fb27
:0204d80001fb26
:0204d90001fb25
:0204da0001fb24
:0204db0001fb23
:0204dc0001fb22
:0204dd0001fb21
:0204de0001fb20
:0204df0001fb1f
:0204e00001fb1e
:0204e10001fb1d
:0204e20001fb1c
:0204e30001fb1b
:0204e40001fb1a
:0204e50001fb19
:0204e60001fb18
:0204e70001fb17
:0204e80001fb16
:0204e90001fb15
:0204ea0001fb14
:0204eb0001fb13
:0204ec0001fb12
:0204ed0001fb11
:0204ee0001fb10
:0204ef0001fb0f
:0204f00001fb0e
:0204f10001fb0d
:0204f20001fb0c
:0204f30001fb0b
:0204f40001fb0a
:0204f50001fb09
:0204f60001fb08
:0204f70001fb07
:0204f80001fb06
:0204f90001fb05
:0204fa0001fb04
:0204fb0001fb03
:0204fc0001fb02
:0204fd0001fb01
:0204fe0001fb00
:0204ff0001fbff
:0205000001fbfd
:0205010001fbfc
:0205020001fbfb
:0205030001fbfa
:0205040001fbf9
:0205050001fbf8
:0205060001fbf7
:0205070001fbf6
:0205080001fbf5
:0205090001fbf4
:02050a0001fbf3
:02050b0001fbf2
:02050c0001fbf1
:02050d0001fbf0
:02050e0001fbef
:02050f0001fbee
:0205100001fbed
:0205110001fbec
:0205120001fbeb
:0205130001fbea
:0205140001fbe9
:0205150001fbe8
:0205160001fbe7
:0205170001fbe6
:0205180001fbe5
:0205190001fbe4
:02051a0001fbe3
:02051b0001fbe2
:02051c0001fbe1
:02051d0001fbe0
:02051e0001fbdf
:02051f0001fbde
:0205200001fbdd
:0205210001fbdc
:0205220001fbdb
:0205230001fbda
:0205240001fbd9
:0205250001fbd8
:0205260001fbd7
:0205270001fbd6
:0205280001fbd5
:0205290001fbd4
:02052a0001fbd3
:02052b0001fbd2
:02052c0001fbd1
:02052d0001fbd0
:02052e0001fbcf
:02052f0001fbce
:0205300001fbcd
:0205310001fbcc
:0205320001fbcb
:0205330001fbca
:0205340001fbc9
:0205350001fbc8
:0205360001fbc7
:0205370001fbc6
:0205380001fbc5
:0205390001fbc4
:02053a0001fbc3
:02053b0001fbc2
:02053c0001fbc1
:02053d0001fbc0
:02053e0001fbbf
:02053f0001fbbe
:0205400001fbbd
:0205410001fbbc
:0205420001fbbb
:0205430001fbba
:0205440001fbb9
:0205450001fbb8
:0205460001fbb7
:0205470001fbb6
:0205480001fbb5
:0205490001fbb4
:02054a0001fbb3
:02054b0001fbb2
:02054c0001fbb1
:02054d0001fbb0
:02054e0001fbaf
:02054f0001fbae
:0205500001fbad
:0205510001fbac
:0205520001fbab
:0205530001fbaa
:0205540001fba9
:0205550001fba8
:0205560001fba7
:0205570001fba6
:0205580001fba5
:0205590001fba4
:02055a0001fba3
:02055b0001fba2
:02055c0001fba1
:02055d0001fba0
:02055e0001fb9f
:02055f0001fb9e
:0205600001fb9d
:0205610001fb9c
:0205620001fb9b
:0205630001fb9a
:0205640001fb99
:0205650001fb98
:0205660001fb97
:0205670001fb96
:0205680001fb95
:0205690001fb94
:02056a0001fa94
:02056b0001fa93
:02056c0001fa92
:02056d0001fa91
:02056e0001fa90
:02056f0001fa8f
:0205700001fa8e
:0205710001fa8d
:0205720001fa8c
:0205730001fa8b
:0205740001fa8a
:0205750001fa89
:0205760001fa88
:0205770001fa87
:0205780001fa86
:0205790001fa85
:02057a0001fa84
:02057b0001fa83
:02057c0001fa82
:02057d0001fa81
:02057e0001fa80
:02057f0001fa7f
:0205800001fa7e
:0205810001fa7d
:0205820001fa7c
:0205830001fa7b
:0205840001fa7a
:0205850001fa79
:0205860001fa78
:0205870001fa77
:0205880001fa76
:0205890001fa75
:02058a0001fa74
:02058b0001fa73
:02058c0001fa72
:02058d0001fa71
:02058e0001fa70
:02058f0001fa6f
:0205900001fa6e
:0205910001fa6d
:0205920001fa6c
:0205930001fa6b
:0205940001fa6a
:0205950001fa69
:0205960001fa68
:0205970001fa67
:0205980001fa66
:0205990001fa65
:02059a0001fa64
:02059b0001fa63
:02059c0001fa62
:02059d0001fa61
:02059e0001fa60
:02059f0001fa5f
:0205a00001fa5e
:0205a10001fa5d
:0205a20001fa5c
:0205a30001fa5b
:0205a40001fa5a
:0205a50001fa59
:0205a60001fa58
:0205a70001fa57
:0205a80001fa56
:0205a90001fa55
:0205aa0001fa54
:0205ab0001fa53
:0205ac0001fa52
:0205ad0001fa51
:0205ae0001fa50
:0205af0001fa4f
:0205b00001fa4e
:0205b10001fa4d
:0205b20001fa4c
:0205b30001fa4b
:0205b40001fa4a
:0205b50001fa49
:0205b60001fa48
:0205b70001fa47
:0205b80001fa46
:0205b90001fa45
:0205ba0001fa44
:0205bb0001fa43
:0205bc0001fa42
:0205bd0001fa41
:0205be0001fa40
:0205bf0001fa3f
:0205c00001fa3e
:0205c10001fa3d
:0205c20001fa3c
:0205c30001fa3b
:0205c40001fa3a
:0205c50001fa39
:0205c60001fa38
:0205c70001fa37
:0205c80001fa36
:0205c90001fa35
:0205ca0001fa34
:0205cb0001fa33
:0205cc0001fa32
:0205cd0001fa31
:0205ce0001fa30
:0205cf0001fa2f
:0205d00001fa2e
:0205d10001fa2d
:0205d20001fa2c
:0205d30001fa2b
:0205d40001fa2a
:0205d50001fa29
:0205d60001fa28
:0205d70001fa27
:0205d80001fa26
:0205d90001fa25
:0205da0001fa24
:0205db0001fa23
:0205dc0001fa22
:0205dd0001fa21
:0205de0001fa20
:0205df0001fa1f
:0205e00001fa1e
:0205e10001fa1d
:0205e20001fa1c
:0205e30001fa1b
:0205e40001fa1a
:0205e50001fa19
:0205e60001fa18
:0205e70001fa17
:0205e80001fa16
:0205e90001fa15
:0205ea0001fa14
:0205eb0001fa13
:0205ec0001fa12
:0205ed0001fa11
:0205ee0001fa10
:0205ef0001fa0f
:0205f00001fa0e
:0205f10001fa0d
:0205f20001fa0c
:0205f30001fa0b
:0205f40001fa0a
:0205f50001fa09
:0205f60001fa08
:0205f70001fa07
:0205f80001fa06
:0205f90001fa05
:0205fa0001fa04
:0205fb0001fa03
:0205fc0001f903
:0205fd0001f902
:0205fe0001f901
:0205ff0001f900
:0206000001f9fe
:0206010001f9fd
:0206020001f9fc
:0206030001f9fb
:0206040001f9fa
:0206050001f9f9
:0206060001f9f8
:0206070001f9f7
:0206080001f9f6
:0206090001f9f5
:02060a0001f9f4
:02060b0001f9f3
:02060c0001f9f2
:02060d0001f9f1
:02060e0001f9f0
:02060f0001f9ef
:0206100001f9ee
:0206110001f9ed
:0206120001f9ec
:0206130001f9eb
:0206140001f9ea
:0206150001f9e9
:0206160001f9e8
:0206170001f9e7
:0206180001f9e6
:0206190001f9e5
:02061a0001f9e4
:02061b0001f9e3
:02061c0001f9e2
:02061d0001f9e1
:02061e0001f9e0
:02061f0001f9df
:0206200001f9de
:0206210001f9dd
:0206220001f9dc
:0206230001f9db
:0206240001f9da
:0206250001f9d9
:0206260001f9d8
:0206270001f9d7
:0206280001f9d6
:0206290001f9d5
:02062a0001f9d4
:02062b0001f9d3
:02062c0001f9d2
:02062d0001f9d1
:02062e0001f9d0
:02062f0001f9cf
:0206300001f9ce
:0206310001f9cd
:0206320001f9cc
:0206330001f9cb
:0206340001f9ca
:0206350001f9c9
:0206360001f9c8
:0206370001f9c7
:0206380001f9c6
:0206390001f9c5
:02063a0001f9c4
:02063b0001f9c3
:02063c0001f9c2
:02063d0001f9c1
:02063e0001f9c0
:02063f0001f9bf
:0206400001f9be
:0206410001f9bd
:0206420001f9bc
:0206430001f9bb
:0206440001f9ba
:0206450001f9b9
:0206460001f9b8
:0206470001f9b7
:0206480001f9b6
:0206490001f9b5
:02064a0001f9b4
:02064b0001f9b3
:02064c0001f9b2
:02064d0001f9b1
:02064e0001f9b0
:02064f0001f9af
:0206500001f9ae
:0206510001f9ad
:0206520001f9ac
:0206530001f9ab
:0206540001f9aa
:0206550001f9a9
:0206560001f9a8
:0206570001f9a7
:0206580001f9a6
:0206590001f9a5
:02065a0001f9a4
:02065b0001f9a3
:02065c0001f9a2
:02065d0001f9a1
:02065e0001f9a0
:02065f0001f99f
:0206600001f99e
:0206610001f99d
:0206620001f99c
:0206630001f99b
:0206640001f99a
:0206650001f999
:0206660001f998
:0206670001f997
:0206680001f996
:0206690001f995
:02066a0001f994
:02066b0001f993
:02066c0001f992
:02066d0001f991
:02066e0001f990
:02066f0001f98f
:0206700001f98e
:0206710001f98d
:0206720001f98c
:0206730001f98b
:0206740001f98a
:0206750001f989
:0206760001f988
:0206770001f987
:0206780001f986
:0206790001f985
:02067a0001f984
:02067b0001f983
:02067c0001f982
:02067d0001f981
:02067e0001f980
:02067f0001f97f
:0206800001f97e
:0206810001f97d
:0206820001f87d
:0206830001f87c
:0206840001f87b
:0206850001f87a
:0206860001f879
:0206870001f878
:0206880001f877
:0206890001f876
:02068a0001f875
:02068b0001f874
:02068c0001f873
:02068d0001f872
:02068e0001f871
:02068f0001f870
:0206900001f86f
:0206910001f86e
:0206920001f86d
:0206930001f86c
:0206940001f86b
:0206950001f86a
:0206960001f869
:0206970001f868
:0206980001f867
:0206990001f866
:02069a0001f865
:02069b0001f864
:02069c0001f863
:02069d0001f862
:02069e0001f861
:02069f0001f860
:0206a00001f85f
:0206a10001f85e
:0206a20001f85d
:0206a30001f85c
:0206a40001f85b
:0206a50001f85a
:0206a60001f859
:0206a70001f858
:0206a80001f857
:0206a90001f856
:0206aa0001f855
:0206ab0001f854
:0206ac0001f853
:0206ad0001f852
:0206ae0001f851
:0206af0001f850
:0206b00001f84f
:0206b10001f84e
:0206b20001f84d
:0206b30001f84c
:0206b40001f84b
:0206b50001f84a
:0206b60001f849
:0206b70001f848
:0206b80001f847
:0206b90001f846
:0206ba0001f845
:0206bb0001f844
:0206bc0001f843
:0206bd0001f842
:0206be0001f841
:0206bf0001f840
:0206c00001f83f
:0206c10001f83e
:0206c20001f83d
:0206c30001f83c
:0206c40001f83b
:0206c50001f83a
:0206c60001f839
:0206c70001f838
:0206c80001f837
:0206c90001f836
:0206ca0001f835
:0206cb0001f834
:0206cc0001f833
:0206cd0001f832
:0206ce0001f831
:0206cf0001f830
:0206d00001f82f
:0206d10001f82e
:0206d20001f82d
:0206d30001f82c
:0206d40001f82b
:0206d50001f82a
:0206d60001f829
:0206d70001f828
:0206d80001f827
:0206d90001f826
:0206da0001f825
:0206db0001f824
:0206dc0001f823
:0206dd0001f822
:0206de0001f821
:0206df0001f820
:0206e00001f81f
:0206e10001f81e
:0206e20001f81d
:0206e30001f81c
:0206e40001f81b
:0206e50001f81a
:0206e60001f819
:0206e70001f818
:0206e80001f817
:0206e90001f816
:0206ea0001f815
:0206eb0001f814
:0206ec0001f813
:0206ed0001f812
:0206ee0001f811
:0206ef0001f810
:0206f00001f80f
:0206f10001f80e
:0206f20001f80d
:0206f30001f80c
:0206f40001f80b
:0206f50001f80a
:0206f60001f809
:0206f70001f808
:0206f80001f807
:0206f90001f806
:0206fa0001f805
:0206fb0001f804
:0206fc0001f803
:0206fd0001f802
:0206fe0001f702
:0206ff0001f701
:0207000001f7ff
:0207010001f7fe
:0207020001f7fd
:0207030001f7fc
:0207040001f7fb
:0207050001f7fa
:0207060001f7f9
:0207070001f7f8
:0207080001f7f7
:0207090001f7f6
:02070a0001f7f5
:02070b0001f7f4
:02070c0001f7f3
:02070d0001f7f2
:02070e0001f7f1
:02070f0001f7f0
:0207100001f7ef
:0207110001f7ee
:0207120001f7ed
:0207130001f7ec
:0207140001f7eb
:0207150001f7ea
:0207160001f7e9
:0207170001f7e8
:0207180001f7e7
:0207190001f7e6
:02071a0001f7e5
:02071b0001f7e4
:02071c0001f7e3
:02071d0001f7e2
:02071e0001f7e1
:02071f0001f7e0
:0207200001f7df
:0207210001f7de
:0207220001f7dd
:0207230001f7dc
:0207240001f7db
:0207250001f7da
:0207260001f7d9
:0207270001f7d8
:0207280001f7d7
:0207290001f7d6
:02072a0001f7d5
:02072b0001f7d4
:02072c0001f7d3
:02072d0001f7d2
:02072e0001f7d1
:02072f0001f7d0
:0207300001f7cf
:0207310001f7ce
:0207320001f7cd
:0207330001f7cc
:0207340001f7cb
:0207350001f7ca
:0207360001f7c9
:0207370001f7c8
:0207380001f7c7
:0207390001f7c6
:02073a0001f7c5
:02073b0001f7c4
:02073c0001f7c3
:02073d0001f7c2
:02073e0001f7c1
:02073f0001f7c0
:0207400001f7bf
:0207410001f7be
:0207420001f7bd
:0207430001f7bc
:0207440001f7bb
:0207450001f7ba
:0207460001f7b9
:0207470001f7b8
:0207480001f7b7
:0207490001f7b6
:02074a0001f7b5
:02074b0001f7b4
:02074c0001f7b3
:02074d0001f7b2
:02074e0001f7b1
:02074f0001f7b0
:0207500001f7af
:0207510001f7ae
:0207520001f7ad
:0207530001f7ac
:0207540001f7ab
:0207550001f7aa
:0207560001f7a9
:0207570001f7a8
:0207580001f7a7
:0207590001f7a6
:02075a0001f7a5
:02075b0001f7a4
:02075c0001f7a3
:02075d0001f7a2
:02075e0001f7a1
:02075f0001f7a0
:0207600001f79f
:0207610001f79e
:0207620001f79d
:0207630001f79c
:0207640001f79b
:0207650001f79a
:0207660001f799
:0207670001f798
:0207680001f797
:0207690001f796
:02076a0001f795
:02076b0001f794
:02076c0001f793
:02076d0001f792
:02076e0001f791
:02076f0001f790
:0207700001f78f
:0207710001f78e
:0207720001f68e
:0207730001f68d
:0207740001f68c
:0207750001f68b
:0207760001f68a
:0207770001f689
:0207780001f688
:0207790001f687
:02077a0001f686
:02077b0001f685
:02077c0001f684
:02077d0001f683
:02077e0001f682
:02077f0001f681
:0207800001f680
:0207810001f67f
:0207820001f67e
:0207830001f67d
:0207840001f67c
:0207850001f67b
:0207860001f67a
:0207870001f679
:0207880001f678
:0207890001f677
:02078a0001f676
:02078b0001f675
:02078c0001f674
:02078d0001f673
:02078e0001f672
:02078f0001f671
:0207900001f670
:0207910001f66f
:0207920001f66e
:0207930001f66d
:0207940001f66c
:0207950001f66b
:0207960001f66a
:0207970001f669
:0207980001f668
:0207990001f667
:02079a0001f666
:02079b0001f665
:02079c0001f664
:02079d0001f663
:02079e0001f662
:02079f0001f661
:0207a00001f660
:0207a10001f65f
:0207a20001f65e
:0207a30001f65d
:0207a40001f65c
:0207a50001f65b
:0207a60001f65a
:0207a70001f659
:0207a80001f658
:0207a90001f657
:0207aa0001f656
:0207ab0001f655
:0207ac0001f654
:0207ad0001f653
:0207ae0001f652
:0207af0001f651
:0207b00001f650
:0207b10001f64f
:0207b20001f64e
:0207b30001f64d
:0207b40001f64c
:0207b50001f64b
:0207b60001f64a
:0207b70001f649
:0207b80001f648
:0207b90001f647
:0207ba0001f646
:0207bb0001f645
:0207bc0001f644
:0207bd0001f643
:0207be0001f642
:0207bf0001f641
:0207c00001f640
:0207c10001f63f
:0207c20001f63e
:0207c30001f63d
:0207c40001f63c
:0207c50001f63b
:0207c60001f63a
:0207c70001f639
:0207c80001f638
:0207c90001f637
:0207ca0001f636
:0207cb0001f635
:0207cc0001f634
:0207cd0001f633
:0207ce0001f632
:0207cf0001f631
:0207d00001f630
:0207d10001f62f
:0207d20001f62e
:0207d30001f62d
:0207d40001f62c
:0207d50001f62b
:0207d60001f62a
:0207d70001f629
:0207d80001f628
:0207d90001f627
:0207da0001f626
:0207db0001f625
:0207dc0001f624
:0207dd0001f623
:0207de0001f622
:0207df0001f522
:0207e00001f521
:0207e10001f520
:0207e20001f51f
:0207e30001f51e
:0207e40001f51d
:0207e50001f51c
:0207e60001f51b
:0207e70001f51a
:0207e80001f519
:0207e90001f518
:0207ea0001f517
:0207eb0001f516
:0207ec0001f515
:0207ed0001f514
:0207ee0001f513
:0207ef0001f512
:0207f00001f511
:0207f10001f510
:0207f20001f50f
:0207f30001f50e
:0207f40001f50d
:0207f50001f50c
:0207f60001f50b
:0207f70001f50a
:0207f80001f509
:0207f90001f508
:0207fa0001f507
:0207fb0001f506
:0207fc0001f505
:0207fd0001f504
:0207fe0001f503
:0207ff0001f502
:0208000001f500
:0208010001f5ff
:0208020001f5fe
:0208030001f5fd
:0208040001f5fc
:0208050001f5fb
:0208060001f5fa
:0208070001f5f9
:0208080001f5f8
:0208090001f5f7
:02080a0001f5f6
:02080b0001f5f5
:02080c0001f5f4
:02080d0001f5f3
:02080e0001f5f2
:02080f0001f5f1
:0208100001f5f0
:0208110001f5ef
:0208120001f5ee
:0208130001f5ed
:0208140001f5ec
:0208150001f5eb
:0208160001f5ea
:0208170001f5e9
:0208180001f5e8
:0208190001f5e7
:02081a0001f5e6
:02081b0001f5e5
:02081c0001f5e4
:02081d0001f5e3
:02081e0001f5e2
:02081f0001f5e1
:0208200001f5e0
:0208210001f5df
:0208220001f5de
:0208230001f5dd
:0208240001f5dc
:0208250001f5db
:0208260001f5da
:0208270001f5d9
:0208280001f5d8
:0208290001f5d7
:02082a0001f5d6
:02082b0001f5d5
:02082c0001f5d4
:02082d0001f5d3
:02082e0001f5d2
:02082f0001f5d1
:0208300001f5d0
:0208310001f5cf
:0208320001f5ce
:0208330001f5cd
:0208340001f5cc
:0208350001f5cb
:0208360001f5ca
:0208370001f5c9
:0208380001f5c8
:0208390001f5c7
:02083a0001f5c6
:02083b0001f5c5
:02083c0001f5c4
:02083d0001f5c3
:02083e0001f5c2
:02083f0001f5c1
:0208400001f5c0
:0208410001f5bf
:0208420001f5be
:0208430001f5bd
:0208440001f5bc
:0208450001f5bb
:0208460001f5ba
:0208470001f4ba
:0208480001f4b9
:0208490001f4b8
:02084a0001f4b7
:02084b0001f4b6
:02084c0001f4b5
:02084d0001f4b4
:02084e0001f4b3
:02084f0001f4b2
:0208500001f4b1
:0208510001f4b0
:0208520001f4af
:0208530001f4ae
:0208540001f4ad
:0208550001f4ac
:0208560001f4ab
:0208570001f4aa
:0208580001f4a9
:0208590001f4a8
:02085a0001f4a7
:02085b0001f4a6
:02085c0001f4a5
:02085d0001f4a4
:02085e0001f4a3
:02085f0001f4a2
:0208600001f4a1
:0208610001f4a0
:0208620001f49f
:0208630001f49e
:0208640001f49d
:0208650001f49c
:0208660001f49b
:0208670001f49a
:0208680001f499
:0208690001f498
:02086a0001f497
:02086b0001f496
:02086c0001f495
:02086d0001f494
:02086e0001f493
:02086f0001f492
:0208700001f491
:0208710001f490
:0208720001f48f
:0208730001f48e
:0208740001f48d
:0208750001f48c
:0208760001f48b
:0208770001f48a
:0208780001f489
:0208790001f488
:02087a0001f487
:02087b0001f486
:02087c0001f485
:02087d0001f484
:02087e0001f483
:02087f0001f482
:0208800001f481
:0208810001f480
:0208820001f47f
:0208830001f47e
:0208840001f47d
:0208850001f47c
:0208860001f47b
:0208870001f47a
:0208880001f479
:0208890001f478
:02088a0001f477
:02088b0001f476
:02088c0001f475
:02088d0001f474
:02088e0001f473
:02088f0001f472
:0208900001f471
:0208910001f470
:0208920001f46f
:0208930001f46e
:0208940001f46d
:0208950001f46c
:0208960001f46b
:0208970001f46a
:0208980001f469
:0208990001f468
:02089a0001f467
:02089b0001f466
:02089c0001f465
:02089d0001f464
:02089e0001f463
:02089f0001f462
:0208a00001f461
:0208a10001f460
:0208a20001f45f
:0208a30001f45e
:0208a40001f45d
:0208a50001f45c
:0208a60001f45b
:0208a70001f45a
:0208a80001f459
:0208a90001f458
:0208aa0001f358
:0208ab0001f357
:0208ac0001f356
:0208ad0001f355
:0208ae0001f354
:0208af0001f353
:0208b00001f352
:0208b10001f351
:0208b20001f350
:0208b30001f34f
:0208b40001f34e
:0208b50001f34d
:0208b60001f34c
:0208b70001f34b
:0208b80001f34a
:0208b90001f349
:0208ba0001f348
:0208bb0001f347
:0208bc0001f346
:0208bd0001f345
:0208be0001f344
:0208bf0001f343
:0208c00001f342
:0208c10001f341
:0208c20001f340
:0208c30001f33f
:0208c40001f33e
:0208c50001f33d
:0208c60001f33c
:0208c70001f33b
:0208c80001f33a
:0208c90001f339
:0208ca0001f338
:0208cb0001f337
:0208cc0001f336
:0208cd0001f335
:0208ce0001f334
:0208cf0001f333
:0208d00001f332
:0208d10001f331
:0208d20001f330
:0208d30001f32f
:0208d40001f32e
:0208d50001f32d
:0208d60001f32c
:0208d70001f32b
:0208d80001f32a
:0208d90001f329
:0208da0001f328
:0208db0001f327
:0208dc0001f326
:0208dd0001f325
:0208de0001f324
:0208df0001f323
:0208e00001f322
:0208e10001f321
:0208e20001f320
:0208e30001f31f
:0208e40001f31e
:0208e50001f31d
:0208e60001f31c
:0208e70001f31b
:0208e80001f31a
:0208e90001f319
:0208ea0001f318
:0208eb0001f317
:0208ec0001f316
:0208ed0001f315
:0208ee0001f314
:0208ef0001f313
:0208f00001f312
:0208f10001f311
:0208f20001f310
:0208f30001f30f
:0208f40001f30e
:0208f50001f30d
:0208f60001f30c
:0208f70001f30b
:0208f80001f30a
:0208f90001f309
:0208fa0001f308
:0208fb0001f307
:0208fc0001f306
:0208fd0001f305
:0208fe0001f304
:0208ff0001f303
:0209000001f301
:0209010001f300
:0209020001f3ff
:0209030001f3fe
:0209040001f3fd
:0209050001f3fc
:0209060001f3fb
:0209070001f3fa
:0209080001f2fa
:0209090001f2f9
:02090a0001f2f8
:02090b0001f2f7
:02090c0001f2f6
:02090d0001f2f5
:02090e0001f2f4
:02090f0001f2f3
:0209100001f2f2
:0209110001f2f1
:0209120001f2f0
:0209130001f2ef
:0209140001f2ee
:0209150001f2ed
:0209160001f2ec
:0209170001f2eb
:0209180001f2ea
:0209190001f2e9
:02091a0001f2e8
:02091b0001f2e7
:02091c0001f2e6
:02091d0001f2e5
:02091e0001f2e4
:02091f0001f2e3
:0209200001f2e2
:0209210001f2e1
:0209220001f2e0
:0209230001f2df
:0209240001f2de
:0209250001f2dd
:0209260001f2dc
:0209270001f2db
:0209280001f2da
:0209290001f2d9
:02092a0001f2d8
:02092b0001f2d7
:02092c0001f2d6
:02092d0001f2d5
:02092e0001f2d4
:02092f0001f2d3
:0209300001f2d2
:0209310001f2d1
:0209320001f2d0
:0209330001f2cf
:0209340001f2ce
:0209350001f2cd
:0209360001f2cc
:0209370001f2cb
:0209380001f2ca
:0209390001f2c9
:02093a0001f2c8
:02093b0001f2c7
:02093c0001f2c6
:02093d0001f2c5
:02093e0001f2c4
:02093f0001f2c3
:0209400001f2c2
:0209410001f2c1
:0209420001f2c0
:0209430001f2bf
:0209440001f2be
:0209450001f2bd
:0209460001f2bc
:0209470001f2bb
:0209480001f2ba
:0209490001f2b9
:02094a0001f2b8
:02094b0001f2b7
:02094c0001f2b6
:02094d0001f2b5
:02094e0001f2b4
:02094f0001f2b3
:0209500001f2b2
:0209510001f2b1
:0209520001f2b0
:0209530001f2af
:0209540001f2ae
:0209550001f2ad
:0209560001f2ac
:0209570001f2ab
:0209580001f2aa
:0209590001f2a9
:02095a0001f2a8
:02095b0001f2a7
:02095c0001f2a6
:02095d0001f2a5
:02095e0001f2a4
:02095f0001f2a3
:0209600001f2a2
:0209610001f2a1
:0209620001f2a0
:0209630001f1a0
:0209640001f19f
:0209650001f19e
:0209660001f19d
:0209670001f19c
:0209680001f19b
:0209690001f19a
:02096a0001f199
:02096b0001f198
:02096c0001f197
:02096d0001f196
:02096e0001f195
:02096f0001f194
:0209700001f193
:0209710001f192
:0209720001f191
:0209730001f190
:0209740001f18f
:0209750001f18e
:0209760001f18d
:0209770001f18c
:0209780001f18b
:0209790001f18a
:02097a0001f189
:02097b0001f188
:02097c0001f187
:02097d0001f186
:02097e0001f185
:02097f0001f184
:0209800001f183
:0209810001f182
:0209820001f181
:0209830001f180
:0209840001f17f
:0209850001f17e
:0209860001f17d
:0209870001f17c
:0209880001f17b
:0209890001f17a
:02098a0001f179
:02098b0001f178
:02098c0001f177
:02098d0001f176
:02098e0001f175
:02098f0001f174
:0209900001f173
:0209910001f172
:0209920001f171
:0209930001f170
:0209940001f16f
:0209950001f16e
:0209960001f16d
:0209970001f16c
:0209980001f16b
:0209990001f16a
:02099a0001f169
:02099b0001f168
:02099c0001f167
:02099d0001f166
:02099e0001f165
:02099f0001f164
:0209a00001f163
:0209a10001f162
:0209a20001f161
:0209a30001f160
:0209a40001f15f
:0209a50001f15e
:0209a60001f15d
:0209a70001f15c
:0209a80001f15b
:0209a90001f15a
:0209aa0001f159
:0209ab0001f158
:0209ac0001f157
:0209ad0001f156
:0209ae0001f155
:0209af0001f154
:0209b00001f153
:0209b10001f152
:0209b20001f151
:0209b30001f150
:0209b40001f14f
:0209b50001f14e
:0209b60001f14d
:0209b70001f14c
:0209b80001f14b
:0209b90001f14a
:0209ba0001f149
:0209bb0001f049
:0209bc0001f048
:0209bd0001f047
:0209be0001f046
:0209bf0001f045
:0209c00001f044
:0209c10001f043
:0209c20001f042
:0209c30001f041
:0209c40001f040
:0209c50001f03f
:0209c60001f03e
:0209c70001f03d
:0209c80001f03c
:0209c90001f03b
:0209ca0001f03a
:0209cb0001f039
:0209cc0001f038
:0209cd0001f037
:0209ce0001f036
:0209cf0001f035
:0209d00001f034
:0209d10001f033
:0209d20001f032
:0209d30001f031
:0209d40001f030
:0209d50001f02f
:0209d60001f02e
:0209d70001f02d
:0209d80001f02c
:0209d90001f02b
:0209da0001f02a
:0209db0001f029
:0209dc0001f028
:0209dd0001f027
:0209de0001f026
:0209df0001f025
:0209e00001f024
:0209e10001f023
:0209e20001f022
:0209e30001f021
:0209e40001f020
:0209e50001f01f
:0209e60001f01e
:0209e70001f01d
:0209e80001f01c
:0209e90001f01b
:0209ea0001f01a
:0209eb0001f019
:0209ec0001f018
:0209ed0001f017
:0209ee0001f016
:0209ef0001f015
:0209f00001f014
:0209f10001f013
:0209f20001f012
:0209f30001f011
:0209f40001f010
:0209f50001f00f
:0209f60001f00e
:0209f70001f00d
:0209f80001f00c
:0209f90001f00b
:0209fa0001f00a
:0209fb0001f009
:0209fc0001f008
:0209fd0001f007
:0209fe0001f006
:0209ff0001f005
:020a000001f003
:020a010001f002
:020a020001f001
:020a030001f000
:020a040001f0ff
:020a050001f0fe
:020a060001f0fd
:020a070001f0fc
:020a080001f0fb
:020a090001f0fa
:020a0a0001f0f9
:020a0b0001f0f8
:020a0c0001f0f7
:020a0d0001f0f6
:020a0e0001f0f5
:020a0f0001f0f4
:020a100001eff4
:020a110001eff3
:020a120001eff2
:020a130001eff1
:020a140001eff0
:020a150001efef
:020a160001efee
:020a170001efed
:020a180001efec
:020a190001efeb
:020a1a0001efea
:020a1b0001efe9
:020a1c0001efe8
:020a1d0001efe7
:020a1e0001efe6
:020a1f0001efe5
:020a200001efe4
:020a210001efe3
:020a220001efe2
:020a230001efe1
:020a240001efe0
:020a250001efdf
:020a260001efde
:020a270001efdd
:020a280001efdc
:020a290001efdb
:020a2a0001efda
:020a2b0001efd9
:020a2c0001efd8
:020a2d0001efd7
:020a2e0001efd6
:020a2f0001efd5
:020a300001efd4
:020a310001efd3
:020a320001efd2
:020a330001efd1
:020a340001efd0
:020a350001efcf
:020a360001efce
:020a370001efcd
:020a380001efcc
:020a390001efcb
:020a3a0001efca
:020a3b0001efc9
:020a3c0001efc8
:020a3d0001efc7
:020a3e0001efc6
:020a3f0001efc5
:020a400001efc4
:020a410001efc3
:020a420001efc2
:020a430001efc1
:020a440001efc0
:020a450001efbf
:020a460001efbe
:020a470001efbd
:020a480001efbc
:020a490001efbb
:020a4a0001efba
:020a4b0001efb9
:020a4c0001efb8
:020a4d0001efb7
:020a4e0001efb6
:020a4f0001efb5
:020a500001efb4
:020a510001efb3
:020a520001efb2
:020a530001efb1
:020a540001efb0
:020a550001efaf
:020a560001efae
:020a570001efad
:020a580001efac
:020a590001efab
:020a5a0001efaa
:020a5b0001efa9
:020a5c0001efa8
:020a5d0001efa7
:020a5e0001efa6
:020a5f0001efa5
:020a600001efa4
:020a610001efa3
:020a620001eea3
:020a630001eea2
:020a640001eea1
:020a650001eea0
:020a660001ee9f
:020a670001ee9e
:020a680001ee9d
:020a690001ee9c
:020a6a0001ee9b
:020a6b0001ee9a
:020a6c0001ee99
:020a6d0001ee98
:020a6e0001ee97
:020a6f0001ee96
:020a700001ee95
:020a710001ee94
:020a720001ee93
:020a730001ee92
:020a740001ee91
:020a750001ee90
:020a760001ee8f
:020a770001ee8e
:020a780001ee8d
:020a790001ee8c
:020a7a0001ee8b
:020a7b0001ee8a
:020a7c0001ee89
:020a7d0001ee88
:020a7e0001ee87
:020a7f0001ee86
:020a800001ee85
:020a810001ee84
:020a820001ee83
:020a830001ee82
:020a840001ee81
:020a850001ee80
:020a860001ee7f
:020a870001ee7e
:020a880001ee7d
:020a890001ee7c
:020a8a0001ee7b
:020a8b0001ee7a
:020a8c0001ee79
:020a8d0001ee78
:020a8e0001ee77
:020a8f0001ee76
:020a900001ee75
:020a910001ee74
:020a920001ee73
:020a930001ee72
:020a940001ee71
:020a950001ee70
:020a960001ee6f
:020a970001ee6e
:020a980001ee6d
:020a990001ee6c
:020a9a0001ee6b
:020a9b0001ee6a
:020a9c0001ee69
:020a9d0001ee68
:020a9e0001ee67
:020a9f0001ee66
:020aa00001ee65
:020aa10001ee64
:020aa20001ee63
:020aa30001ee62
:020aa40001ee61
:020aa50001ee60
:020aa60001ee5f
:020aa70001ee5e
:020aa80001ee5d
:020aa90001ee5c
:020aaa0001ee5b
:020aab0001ee5a
:020aac0001ee59
:020aad0001ee58
:020aae0001ee57
:020aaf0001ee56
:020ab00001ee55
:020ab10001ee54
:020ab20001ed54
:020ab30001ed53
:020ab40001ed52
:020ab50001ed51
:020ab60001ed50
:020ab70001ed4f
:020ab80001ed4e
:020ab90001ed4d
:020aba0001ed4c
:020abb0001ed4b
:020abc0001ed4a
:020abd0001ed49
:020abe0001ed48
:020abf0001ed47
:020ac00001ed46
:020ac10001ed45
:020ac20001ed44
:020ac30001ed43
:020ac40001ed42
:020ac50001ed41
:020ac60001ed40
:020ac70001ed3f
:020ac80001ed3e
:020ac90001ed3d
:020aca0001ed3c
:020acb0001ed3b
:020acc0001ed3a
:020acd0001ed39
:020ace0001ed38
:020acf0001ed37
:020ad00001ed36
:020ad10001ed35
:020ad20001ed34
:020ad30001ed33
:020ad40001ed32
:020ad50001ed31
:020ad60001ed30
:020ad70001ed2f
:020ad80001ed2e
:020ad90001ed2d
:020ada0001ed2c
:020adb0001ed2b
:020adc0001ed2a
:020add0001ed29
:020ade0001ed28
:020adf0001ed27
:020ae00001ed26
:020ae10001ed25
:020ae20001ed24
:020ae30001ed23
:020ae40001ed22
:020ae50001ed21
:020ae60001ed20
:020ae70001ed1f
:020ae80001ed1e
:020ae90001ed1d
:020aea0001ed1c
:020aeb0001ed1b
:020aec0001ed1a
:020aed0001ed19
:020aee0001ed18
:020aef0001ed17
:020af00001ed16
:020af10001ed15
:020af20001ed14
:020af30001ed13
:020af40001ed12
:020af50001ed11
:020af60001ed10
:020af70001ed0f
:020af80001ed0e
:020af90001ed0d
:020afa0001ed0c
:020afb0001ed0b
:020afc0001ed0a
:020afd0001ed09
:020afe0001ed08
:020aff0001ed07
:020b000001ec06
:020b010001ec05
:020b020001ec04
:020b030001ec03
:020b040001ec02
:020b050001ec01
:020b060001ec00
:020b070001ecff
:020b080001ecfe
:020b090001ecfd
:020b0a0001ecfc
:020b0b0001ecfb
:020b0c0001ecfa
:020b0d0001ecf9
:020b0e0001ecf8
:020b0f0001ecf7
:020b100001ecf6
:020b110001ecf5
:020b120001ecf4
:020b130001ecf3
:020b140001ecf2
:020b150001ecf1
:020b160001ecf0
:020b170001ecef
:020b180001ecee
:020b190001eced
:020b1a0001ecec
:020b1b0001eceb
:020b1c0001ecea
:020b1d0001ece9
:020b1e0001ece8
:020b1f0001ece7
:020b200001ece6
:020b210001ece5
:020b220001ece4
:020b230001ece3
:020b240001ece2
:020b250001ece1
:020b260001ece0
:020b270001ecdf
:020b280001ecde
:020b290001ecdd
:020b2a0001ecdc
:020b2b0001ecdb
:020b2c0001ecda
:020b2d0001ecd9
:020b2e0001ecd8
:020b2f0001ecd7
:020b300001ecd6
:020b310001ecd5
:020b320001ecd4
:020b330001ecd3
:020b340001ecd2
:020b350001ecd1
:020b360001ecd0
:020b370001eccf
:020b380001ecce
:020b390001eccd
:020b3a0001eccc
:020b3b0001eccb
:020b3c0001ecca
:020b3d0001ecc9
:020b3e0001ecc8
:020b3f0001ecc7
:020b400001ecc6
:020b410001ecc5
:020b420001ecc4
:020b430001ecc3
:020b440001ecc2
:020b450001ecc1
:020b460001ecc0
:020b470001ecbf
:020b480001ecbe
:020b490001ecbd
:020b4a0001ecbc
:020b4b0001ebbc
:020b4c0001ebbb
:020b4d0001ebba
:020b4e0001ebb9
:020b4f0001ebb8
:020b500001ebb7
:020b510001ebb6
:020b520001ebb5
:020b530001ebb4
:020b540001ebb3
:020b550001ebb2
:020b560001ebb1
:020b570001ebb0
:020b580001ebaf
:020b590001ebae
:020b5a0001ebad
:020b5b0001ebac
:020b5c0001ebab
:020b5d0001ebaa
:020b5e0001eba9
:020b5f0001eba8
:020b600001eba7
:020b610001eba6
:020b620001eba5
:020b630001eba4
:020b640001eba3
:020b650001eba2
:020b660001eba1
:020b670001eba0
:020b680001eb9f
:020b690001eb9e
:020b6a0001eb9d
:020b6b0001eb9c
:020b6c0001eb9b
:020b6d0001eb9a
:020b6e0001eb99
:020b6f0001eb98
:020b700001eb97
:020b710001eb96
:020b720001eb95
:020b730001eb94
:020b740001eb93
:020b750001eb92
:020b760001eb91
:020b770001eb90
:020b780001eb8f
:020b790001eb8e
:020b7a0001eb8d
:020b7b0001eb8c
:020b7c0001eb8b
:020b7d0001eb8a
:020b7e0001eb89
:020b7f0001eb88
:020b800001eb87
:020b810001eb86
:020b820001eb85
:020b830001eb84
:020b840001eb83
:020b850001eb82
:020b860001eb81
:020b870001eb80
:020b880001eb7f
:020b890001eb7e
:020b8a0001eb7d
:020b8b0001eb7c
:020b8c0001eb7b
:020b8d0001eb7a
:020b8e0001eb79
:020b8f0001eb78
:020b900001eb77
:020b910001eb76
:020b920001eb75
:020b930001eb74
:020b940001eb73
:020b950001ea73
:020b960001ea72
:020b970001ea71
:020b980001ea70
:020b990001ea6f
:020b9a0001ea6e
:020b9b0001ea6d
:020b9c0001ea6c
:020b9d0001ea6b
:020b9e0001ea6a
:020b9f0001ea69
:020ba00001ea68
:020ba10001ea67
:020ba20001ea66
:020ba30001ea65
:020ba40001ea64
:020ba50001ea63
:020ba60001ea62
:020ba70001ea61
:020ba80001ea60
:020ba90001ea5f
:020baa0001ea5e
:020bab0001ea5d
:020bac0001ea5c
:020bad0001ea5b
:020bae0001ea5a
:020baf0001ea59
:020bb00001ea58
:020bb10001ea57
:020bb20001ea56
:020bb30001ea55
:020bb40001ea54
:020bb50001ea53
:020bb60001ea52
:020bb70001ea51
:020bb80001ea50
:020bb90001ea4f
:020bba0001ea4e
:020bbb0001ea4d
:020bbc0001ea4c
:020bbd0001ea4b
:020bbe0001ea4a
:020bbf0001ea49
:020bc00001ea48
:020bc10001ea47
:020bc20001ea46
:020bc30001ea45
:020bc40001ea44
:020bc50001ea43
:020bc60001ea42
:020bc70001ea41
:020bc80001ea40
:020bc90001ea3f
:020bca0001ea3e
:020bcb0001ea3d
:020bcc0001ea3c
:020bcd0001ea3b
:020bce0001ea3a
:020bcf0001ea39
:020bd00001ea38
:020bd10001ea37
:020bd20001ea36
:020bd30001ea35
:020bd40001ea34
:020bd50001ea33
:020bd60001ea32
:020bd70001ea31
:020bd80001ea30
:020bd90001ea2f
:020bda0001ea2e
:020bdb0001ea2d
:020bdc0001ea2c
:020bdd0001e92c
:020bde0001e92b
:020bdf0001e92a
:020be00001e929
:020be10001e928
:020be20001e927
:020be30001e926
:020be40001e925
:020be50001e924
:020be60001e923
:020be70001e922
:020be80001e921
:020be90001e920
:020bea0001e91f
:020beb0001e91e
:020bec0001e91d
:020bed0001e91c
:020bee0001e91b
:020bef0001e91a
:020bf00001e919
:020bf10001e918
:020bf20001e917
:020bf30001e916
:020bf40001e915
:020bf50001e914
:020bf60001e913
:020bf70001e912
:020bf80001e911
:020bf90001e910
:020bfa0001e90f
:020bfb0001e90e
:020bfc0001e90d
:020bfd0001e90c
:020bfe0001e90b
:020bff0001e90a
:020c000001e908
:020c010001e907
:020c020001e906
:020c030001e905
:020c040001e904
:020c050001e903
:020c060001e902
:020c070001e901
:020c080001e900
:020c090001e9ff
:020c0a0001e9fe
:020c0b0001e9fd
:020c0c0001e9fc
:020c0d0001e9fb
:020c0e0001e9fa
:020c0f0001e9f9
:020c100001e9f8
:020c110001e9f7
:020c120001e9f6
:020c130001e9f5
:020c140001e9f4
:020c150001e9f3
:020c160001e9f2
:020c170001e9f1
:020c180001e9f0
:020c190001e9ef
:020c1a0001e9ee
:020c1b0001e9ed
:020c1c0001e9ec
:020c1d0001e9eb
:020c1e0001e9ea
:020c1f0001e9e9
:020c200001e9e8
:020c210001e9e7
:020c220001e9e6
:020c230001e8e6
:020c240001e8e5
:020c250001e8e4
:020c260001e8e3
:020c270001e8e2
:020c280001e8e1
:020c290001e8e0
:020c2a0001e8df
:020c2b0001e8de
:020c2c0001e8dd
:020c2d0001e8dc
:020c2e0001e8db
:020c2f0001e8da
:020c300001e8d9
:020c310001e8d8
:020c320001e8d7
:020c330001e8d6
:020c340001e8d5
:020c350001e8d4
:020c360001e8d3
:020c370001e8d2
:020c380001e8d1
:020c390001e8d0
:020c3a0001e8cf
:020c3b0001e8ce
:020c3c0001e8cd
:020c3d0001e8cc
:020c3e0001e8cb
:020c3f0001e8ca
:020c400001e8c9
:020c410001e8c8
:020c420001e8c7
:020c430001e8c6
:020c440001e8c5
:020c450001e8c4
:020c460001e8c3
:020c470001e8c2
:020c480001e8c1
:020c490001e8c0
:020c4a0001e8bf
:020c4b0001e8be
:020c4c0001e8bd
:020c4d0001e8bc
:020c4e0001e8bb
:020c4f0001e8ba
:020c500001e8b9
:020c510001e8b8
:020c520001e8b7
:020c530001e8b6
:020c540001e8b5
:020c550001e8b4
:020c560001e8b3
:020c570001e8b2
:020c580001e8b1
:020c590001e8b0
:020c5a0001e8af
:020c5b0001e8ae
:020c5c0001e8ad
:020c5d0001e8ac
:020c5e0001e8ab
:020c5f0001e8aa
:020c600001e8a9
:020c610001e8a8
:020c620001e8a7
:020c630001e8a6
:020c640001e8a5
:020c650001e8a4
:020c660001e8a3
:020c670001e8a2
:020c680001e7a2
:020c690001e7a1
:020c6a0001e7a0
:020c6b0001e79f
:020c6c0001e79e
:020c6d0001e79d
:020c6e0001e79c
:020c6f0001e79b
:020c700001e79a
:020c710001e799
:020c720001e798
:020c730001e797
:020c740001e796
:020c750001e795
:020c760001e794
:020c770001e793
:020c780001e792
:020c790001e791
:020c7a0001e790
:020c7b0001e78f
:020c7c0001e78e
:020c7d0001e78d
:020c7e0001e78c
:020c7f0001e78b
:020c800001e78a
:020c810001e789
:020c820001e788
:020c830001e787
:020c840001e786
:020c850001e785
:020c860001e784
:020c870001e783
:020c880001e782
:020c890001e781
:020c8a0001e780
:020c8b0001e77f
:020c8c0001e77e
:020c8d0001e77d
:020c8e0001e77c
:020c8f0001e77b
:020c900001e77a
:020c910001e779
:020c920001e778
:020c930001e777
:020c940001e776
:020c950001e775
:020c960001e774
:020c970001e773
:020c980001e772
:020c990001e771
:020c9a0001e770
:020c9b0001e76f
:020c9c0001e76e
:020c9d0001e76d
:020c9e0001e76c
:020c9f0001e76b
:020ca00001e76a
:020ca10001e769
:020ca20001e768
:020ca30001e767
:020ca40001e766
:020ca50001e765
:020ca60001e764
:020ca70001e763
:020ca80001e762
:020ca90001e761
:020caa0001e760
:020cab0001e660
:020cac0001e65f
:020cad0001e65e
:020cae0001e65d
:020caf0001e65c
:020cb00001e65b
:020cb10001e65a
:020cb20001e659
:020cb30001e658
:020cb40001e657
:020cb50001e656
:020cb60001e655
:020cb70001e654
:020cb80001e653
:020cb90001e652
:020cba0001e651
:020cbb0001e650
:020cbc0001e64f
:020cbd0001e64e
:020cbe0001e64d
:020cbf0001e64c
:020cc00001e64b
:020cc10001e64a
:020cc20001e649
:020cc30001e648
:020cc40001e647
:020cc50001e646
:020cc60001e645
:020cc70001e644
:020cc80001e643
:020cc90001e642
:020cca0001e641
:020ccb0001e640
:020ccc0001e63f
:020ccd0001e63e
:020cce0001e63d
:020ccf0001e63c
:020cd00001e63b
:020cd10001e63a
:020cd20001e639
:020cd30001e638
:020cd40001e637
:020cd50001e636
:020cd60001e635
:020cd70001e634
:020cd80001e633
:020cd90001e632
:020cda0001e631
:020cdb0001e630
:020cdc0001e62f
:020cdd0001e62e
:020cde0001e62d
:020cdf0001e62c
:020ce00001e62b
:020ce10001e62a
:020ce20001e629
:020ce30001e628
:020ce40001e627
:020ce50001e626
:020ce60001e625
:020ce70001e624
:020ce80001e623
:020ce90001e622
:020cea0001e621
:020ceb0001e620
:020cec0001e61f
:020ced0001e61e
:020cee0001e51e
:020cef0001e51d
:020cf00001e51c
:020cf10001e51b
:020cf20001e51a
:020cf30001e519
:020cf40001e518
:020cf50001e517
:020cf60001e516
:020cf70001e515
:020cf80001e514
:020cf90001e513
:020cfa0001e512
:020cfb0001e511
:020cfc0001e510
:020cfd0001e50f
:020cfe0001e50e
:020cff0001e50d
:020d000001e50b
:020d010001e50a
:020d020001e509
:020d030001e508
:020d040001e507
:020d050001e506
:020d060001e505
:020d070001e504
:020d080001e503
:020d090001e502
:020d0a0001e501
:020d0b0001e500
:020d0c0001e5ff
:020d0d0001e5fe
:020d0e0001e5fd
:020d0f0001e5fc
:020d100001e5fb
:020d110001e5fa
:020d120001e5f9
:020d130001e5f8
:020d140001e5f7
:020d150001e5f6
:020d160001e5f5
:020d170001e5f4
:020d180001e5f3
:020d190001e5f2
:020d1a0001e5f1
:020d1b0001e5f0
:020d1c0001e5ef
:020d1d0001e5ee
:020d1e0001e5ed
:020d1f0001e5ec
:020d200001e5eb
:020d210001e5ea
:020d220001e5e9
:020d230001e5e8
:020d240001e5e7
:020d250001e5e6
:020d260001e5e5
:020d270001e5e4
:020d280001e5e3
:020d290001e5e2
:020d2a0001e5e1
:020d2b0001e5e0
:020d2c0001e5df
:020d2d0001e5de
:020d2e0001e4de
:020d2f0001e4dd
:020d300001e4dc
:020d310001e4db
:020d320001e4da
:020d330001e4d9
:020d340001e4d8
:020d350001e4d7
:020d360001e4d6
:020d370001e4d5
:020d380001e4d4
:020d390001e4d3
:020d3a0001e4d2
:020d3b0001e4d1
:020d3c0001e4d0
:020d3d0001e4cf
:020d3e0001e4ce
:020d3f0001e4cd
:020d400001e4cc
:020d410001e4cb
:020d420001e4ca
:020d430001e4c9
:020d440001e4c8
:020d450001e4c7
:020d460001e4c6
:020d470001e4c5
:020d480001e4c4
:020d490001e4c3
:020d4a0001e4c2
:020d4b0001e4c1
:020d4c0001e4c0
:020d4d0001e4bf
:020d4e0001e4be
:020d4f0001e4bd
:020d500001e4bc
:020d510001e4bb
:020d520001e4ba
:020d530001e4b9
:020d540001e4b8
:020d550001e4b7
:020d560001e4b6
:020d570001e4b5
:020d580001e4b4
:020d590001e4b3
:020d5a0001e4b2
:020d5b0001e4b1
:020d5c0001e4b0
:020d5d0001e4af
:020d5e0001e4ae
:020d5f0001e4ad
:020d600001e4ac
:020d610001e4ab
:020d620001e4aa
:020d630001e4a9
:020d640001e4a8
:020d650001e4a7
:020d660001e4a6
:020d670001e4a5
:020d680001e4a4
:020d690001e4a3
:020d6a0001e4a2
:020d6b0001e4a1
:020d6c0001e4a0
:020d6d0001e49f
:020d6e0001e39f
:020d6f0001e39e
:020d700001e39d
:020d710001e39c
:020d720001e39b
:020d730001e39a
:020d740001e399
:020d750001e398
:020d760001e397
:020d770001e396
:020d780001e395
:020d790001e394
:020d7a0001e393
:020d7b0001e392
:020d7c0001e391
:020d7d0001e390
:020d7e0001e38f
:020d7f0001e38e
:020d800001e38d
:020d810001e38c
:020d820001e38b
:020d830001e38a
:020d840001e389
:020d850001e388
:020d860001e387
:020d870001e386
:020d880001e385
:020d890001e384
:020d8a0001e383
:020d8b0001e382
:020d8c0001e381
:020d8d0001e380
:020d8e0001e37f
:020d8f0001e37e
:020d900001e37d
:020d910001e37c
:020d920001e37b
:020d930001e37a
:020d940001e379
:020d950001e378
:020d960001e377
:020d970001e376
:020d980001e375
:020d990001e374
:020d9a0001e373
:020d9b0001e372
:020d9c0001e371
:020d9d0001e370
:020d9e0001e36f
:020d9f0001e36e
:020da00001e36d
:020da10001e36c
:020da20001e36b
:020da30001e36a
:020da40001e369
:020da50001e368
:020da60001e367
:020da70001e366
:020da80001e365
:020da90001e364
:020daa0001e363
:020dab0001e362
:020dac0001e262
:020dad0001e261
:020dae0001e260
:020daf0001e25f
:020db00001e25e
:020db10001e25d
:020db20001e25c
:020db30001e25b
:020db40001e25a
:020db50001e259
:020db60001e258
:020db70001e257
:020db80001e256
:020db90001e255
:020dba0001e254
:020dbb0001e253
:020dbc0001e252
:020dbd0001e251
:020dbe0001e250
:020dbf0001e24f
:020dc00001e24e
:020dc10001e24d
:020dc20001e24c
:020dc30001e24b
:020dc40001e24a
:020dc50001e249
:020dc60001e248
:020dc70001e247
:020dc80001e246
:020dc90001e245
:020dca0001e244
:020dcb0001e243
:020dcc0001e242
:020dcd0001e241
:020dce0001e240
:020dcf0001e23f
:020dd00001e23e
:020dd10001e23d
:020dd20001e23c
:020dd30001e23b
:020dd40001e23a
:020dd50001e239
:020dd60001e238
:020dd70001e237
:020dd80001e236
:020dd90001e235
:020dda0001e234
:020ddb0001e233
:020ddc0001e232
:020ddd0001e231
:020dde0001e230
:020ddf0001e22f
:020de00001e22e
:020de10001e22d
:020de20001e22c
:020de30001e22b
:020de40001e22a
:020de50001e229
:020de60001e228
:020de70001e227
:020de80001e226
:020de90001e225
:020dea0001e125
:020deb0001e124
:020dec0001e123
:020ded0001e122
:020dee0001e121
:020def0001e120
:020df00001e11f
:020df10001e11e
:020df20001e11d
:020df30001e11c
:020df40001e11b
:020df50001e11a
:020df60001e119
:020df70001e118
:020df80001e117
:020df90001e116
:020dfa0001e115
:020dfb0001e114
:020dfc0001e113
:020dfd0001e112
:020dfe0001e111
:020dff0001e110
:020e000001e10e
:020e010001e10d
:020e020001e10c
:020e030001e10b
:020e040001e10a
:020e050001e109
:020e060001e108
:020e070001e107
:020e080001e106
:020e090001e105
:020e0a0001e104
:020e0b0001e103
:020e0c0001e102
:020e0d0001e101
:020e0e0001e100
:020e0f0001e1ff
:020e100001e1fe
:020e110001e1fd
:020e120001e1fc
:020e130001e1fb
:020e140001e1fa
:020e150001e1f9
:020e160001e1f8
:020e170001e1f7
:020e180001e1f6
:020e190001e1f5
:020e1a0001e1f4
:020e1b0001e1f3
:020e1c0001e1f2
:020e1d0001e1f1
:020e1e0001e1f0
:020e1f0001e1ef
:020e200001e1ee
:020e210001e1ed
:020e220001e1ec
:020e230001e1eb
:020e240001e1ea
:020e250001e1e9
:020e260001e0e9
:020e270001e0e8
:020e280001e0e7
:020e290001e0e6
:020e2a0001e0e5
:020e2b0001e0e4
:020e2c0001e0e3
:020e2d0001e0e2
:020e2e0001e0e1
:020e2f0001e0e0
:020e300001e0df
:020e310001e0de
:020e320001e0dd
:020e330001e0dc
:020e340001e0db
:020e350001e0da
:020e360001e0d9
:020e370001e0d8
:020e380001e0d7
:020e390001e0d6
:020e3a0001e0d5
:020e3b0001e0d4
:020e3c0001e0d3
:020e3d0001e0d2
:020e3e0001e0d1
:020e3f0001e0d0
:020e400001e0cf
:020e410001e0ce
:020e420001e0cd
:020e430001e0cc
:020e440001e0cb
:020e450001e0ca
:020e460001e0c9
:020e470001e0c8
:020e480001e0c7
:020e490001e0c6
:020e4a0001e0c5
:020e4b0001e0c4
:020e4c0001e0c3
:020e4d0001e0c2
:020e4e0001e0c1
:020e4f0001e0c0
:020e500001e0bf
:020e510001e0be
:020e520001e0bd
:020e530001e0bc
:020e540001e0bb
:020e550001e0ba
:020e560001e0b9
:020e570001e0b8
:020e580001e0b7
:020e590001e0b6
:020e5a0001e0b5
:020e5b0001e0b4
:020e5c0001e0b3
:020e5d0001e0b2
:020e5e0001e0b1
:020e5f0001e0b0
:020e600001e0af
:020e610001e0ae
:020e620001dfae
:020e630001dfad
:020e640001dfac
:020e650001dfab
:020e660001dfaa
:020e670001dfa9
:020e680001dfa8
:020e690001dfa7
:020e6a0001dfa6
:020e6b0001dfa5
:020e6c0001dfa4
:020e6d0001dfa3
:020e6e0001dfa2
:020e6f0001dfa1
:020e700001dfa0
:020e710001df9f
:020e720001df9e
:020e730001df9d
:020e740001df9c
:020e750001df9b
:020e760001df9a
:020e770001df99
:020e780001df98
:020e790001df97
:020e7a0001df96
:020e7b0001df95
:020e7c0001df94
:020e7d0001df93
:020e7e0001df92
:020e7f0001df91
:020e800001df90
:020e810001df8f
:020e820001df8e
:020e830001df8d
:020e840001df8c
:020e850001df8b
:020e860001df8a
:020e870001df89
:020e880001df88
:020e890001df87
:020e8a0001df86
:020e8b0001df85
:020e8c0001df84
:020e8d0001df83
:020e8e0001df82
:020e8f0001df81
:020e900001df80
:020e910001df7f
:020e920001df7e
:020e930001df7d
:020e940001df7c
:020e950001df7b
:020e960001df7a
:020e970001df79
:020e980001df78
:020e990001df77
:020e9a0001df76
:020e9b0001df75
:020e9c0001df74
:020e9d0001de74
:020e9e0001de73
:020e9f0001de72
:020ea00001de71
:020ea10001de70
:020ea20001de6f
:020ea30001de6e
:020ea40001de6d
:020ea50001de6c
:020ea60001de6b
:020ea70001de6a
:020ea80001de69
:020ea90001de68
:020eaa0001de67
:020eab0001de66
:020eac0001de65
:020ead0001de64
:020eae0001de63
:020eaf0001de62
:020eb00001de61
:020eb10001de60
:020eb20001de5f
:020eb30001de5e
:020eb40001de5d
:020eb50001de5c
:020eb60001de5b
:020eb70001de5a
:020eb80001de59
:020eb90001de58
:020eba0001de57
:020ebb0001de56
:020ebc0001de55
:020ebd0001de54
:020ebe0001de53
:020ebf0001de52
:020ec00001de51
:020ec10001de50
:020ec20001de4f
:020ec30001de4e
:020ec40001de4d
:020ec50001de4c
:020ec60001de4b
:020ec70001de4a
:020ec80001de49
:020ec90001de48
:020eca0001de47
:020ecb0001de46
:020ecc0001de45
:020ecd0001de44
:020ece0001de43
:020ecf0001de42
:020ed00001de41
:020ed10001de40
:020ed20001de3f
:020ed30001de3e
:020ed40001de3d
:020ed50001de3c
:020ed60001dd3c
:020ed70001dd3b
:020ed80001dd3a
:020ed90001dd39
:020eda0001dd38
:020edb0001dd37
:020edc0001dd36
:020edd0001dd35
:020ede0001dd34
:020edf0001dd33
:020ee00001dd32
:020ee10001dd31
:020ee20001dd30
:020ee30001dd2f
:020ee40001dd2e
:020ee50001dd2d
:020ee60001dd2c
:020ee70001dd2b
:020ee80001dd2a
:020ee90001dd29
:020eea0001dd28
:020eeb0001dd27
:020eec0001dd26
:020eed0001dd25
:020eee0001dd24
:020eef0001dd23
:020ef00001dd22
:020ef10001dd21
:020ef20001dd20
:020ef30001dd1f
:020ef40001dd1e
:020ef50001dd1d
:020ef60001dd1c
:020ef70001dd1b
:020ef80001dd1a
:020ef90001dd19
:020efa0001dd18
:020efb0001dd17
:020efc0001dd16
:020efd0001dd15
:020efe0001dd14
:020eff0001dd13
:020f000001dd11
:020f010001dd10
:020f020001dd0f
:020f030001dd0e
:020f040001dd0d
:020f050001dd0c
:020f060001dd0b
:020f070001dd0a
:020f080001dd09
:020f090001dd08
:020f0a0001dd07
:020f0b0001dd06
:020f0c0001dd05
:020f0d0001dd04
:020f0e0001dd03
:020f0f0001dc03
:020f100001dc02
:020f110001dc01
:020f120001dc00
:020f130001dcff
:020f140001dcfe
:020f150001dcfd
:020f160001dcfc
:020f170001dcfb
:020f180001dcfa
:020f190001dcf9
:020f1a0001dcf8
:020f1b0001dcf7
:020f1c0001dcf6
:020f1d0001dcf5
:020f1e0001dcf4
:020f1f0001dcf3
:020f200001dcf2
:020f210001dcf1
:020f220001dcf0
:020f230001dcef
:020f240001dcee
:020f250001dced
:020f260001dcec
:020f270001dceb
:020f280001dcea
:020f290001dce9
:020f2a0001dce8
:020f2b0001dce7
:020f2c0001dce6
:020f2d0001dce5
:020f2e0001dce4
:020f2f0001dce3
:020f300001dce2
:020f310001dce1
:020f320001dce0
:020f330001dcdf
:020f340001dcde
:020f350001dcdd
:020f360001dcdc
:020f370001dcdb
:020f380001dcda
:020f390001dcd9
:020f3a0001dcd8
:020f3b0001dcd7
:020f3c0001dcd6
:020f3d0001dcd5
:020f3e0001dcd4
:020f3f0001dcd3
:020f400001dcd2
:020f410001dcd1
:020f420001dcd0
:020f430001dccf
:020f440001dcce
:020f450001dccd
:020f460001dccc
:020f470001dbcc
:020f480001dbcb
:020f490001dbca
:020f4a0001dbc9
:020f4b0001dbc8
:020f4c0001dbc7
:020f4d0001dbc6
:020f4e0001dbc5
:020f4f0001dbc4
:020f500001dbc3
:020f510001dbc2
:020f520001dbc1
:020f530001dbc0
:020f540001dbbf
:020f550001dbbe
:020f560001dbbd
:020f570001dbbc
:020f580001dbbb
:020f590001dbba
:020f5a0001dbb9
:020f5b0001dbb8
:020f5c0001dbb7
:020f5d0001dbb6
:020f5e0001dbb5
:020f5f0001dbb4
:020f600001dbb3
:020f610001dbb2
:020f620001dbb1
:020f630001dbb0
:020f640001dbaf
:020f650001dbae
:020f660001dbad
:020f670001dbac
:020f680001dbab
:020f690001dbaa
:020f6a0001dba9
:020f6b0001dba8
:020f6c0001dba7
:020f6d0001dba6
:020f6e0001dba5
:020f6f0001dba4
:020f700001dba3
:020f710001dba2
:020f720001dba1
:020f730001dba0
:020f740001db9f
:020f750001db9e
:020f760001db9d
:020f770001db9c
:020f780001db9b
:020f790001db9a
:020f7a0001db99
:020f7b0001db98
:020f7c0001db97
:020f7d0001db96
:020f7e0001db95
:020f7f0001da95
:020f800001da94
:020f810001da93
:020f820001da92
:020f830001da91
:020f840001da90
:020f850001da8f
:020f860001da8e
:020f870001da8d
:020f880001da8c
:020f890001da8b
:020f8a0001da8a
:020f8b0001da89
:020f8c0001da88
:020f8d0001da87
:020f8e0001da86
:020f8f0001da85
:020f900001da84
:020f910001da83
:020f920001da82
:020f930001da81
:020f940001da80
:020f950001da7f
:020f960001da7e
:020f970001da7d
:020f980001da7c
:020f990001da7b
:020f9a0001da7a
:020f9b0001da79
:020f9c0001da78
:020f9d0001da77
:020f9e0001da76
:020f9f0001da75
